{
  "_format": "hh-sol-artifact-1",
  "contractName": "Lottery",
  "sourceName": "contracts/Lottery.sol",
  "abi": [
    {
      "inputs": [
        {
          "internalType": "address",
          "name": "_lotteryToken",
          "type": "address"
        },
        {
          "internalType": "uint256",
          "name": "_participateInterval",
          "type": "uint256"
        }
      ],
      "stateMutability": "nonpayable",
      "type": "constructor"
    },
    {
      "anonymous": false,
      "inputs": [
        {
          "indexed": true,
          "internalType": "address",
          "name": "txSender",
          "type": "address"
        },
        {
          "indexed": false,
          "internalType": "uint256",
          "name": "winningNumber",
          "type": "uint256"
        }
      ],
      "name": "RandomWinningNumberSelect",
      "type": "event"
    },
    {
      "anonymous": false,
      "inputs": [
        {
          "indexed": true,
          "internalType": "address",
          "name": "user",
          "type": "address"
        },
        {
          "indexed": false,
          "internalType": "uint256",
          "name": "totalAmountFrom",
          "type": "uint256"
        },
        {
          "indexed": false,
          "internalType": "uint256",
          "name": "totalAmountTo",
          "type": "uint256"
        },
        {
          "indexed": false,
          "internalType": "uint256",
          "name": "userParticipationId",
          "type": "uint256"
        }
      ],
      "name": "UserParticipate",
      "type": "event"
    },
    {
      "anonymous": false,
      "inputs": [
        {
          "indexed": true,
          "internalType": "address",
          "name": "winner",
          "type": "address"
        },
        {
          "indexed": false,
          "internalType": "uint256",
          "name": "intervalId",
          "type": "uint256"
        },
        {
          "indexed": false,
          "internalType": "uint256",
          "name": "claimAmount",
          "type": "uint256"
        }
      ],
      "name": "WinnerClaim",
      "type": "event"
    },
    {
      "inputs": [
        {
          "internalType": "address",
          "name": "_winner",
          "type": "address"
        },
        {
          "internalType": "uint256",
          "name": "_winnerIntervalId",
          "type": "uint256"
        }
      ],
      "name": "claimWinnerReward",
      "outputs": [
        {
          "internalType": "uint256",
          "name": "amountToClaim",
          "type": "uint256"
        }
      ],
      "stateMutability": "nonpayable",
      "type": "function"
    },
    {
      "inputs": [
        {
          "internalType": "uint256",
          "name": "participants",
          "type": "uint256"
        }
      ],
      "name": "generateRandomNumber",
      "outputs": [
        {
          "internalType": "uint256",
          "name": "",
          "type": "uint256"
        }
      ],
      "stateMutability": "nonpayable",
      "type": "function"
    },
    {
      "inputs": [],
      "name": "getCurrect",
      "outputs": [
        {
          "internalType": "uint256",
          "name": "",
          "type": "uint256"
        }
      ],
      "stateMutability": "view",
      "type": "function"
    },
    {
      "inputs": [
        {
          "internalType": "address",
          "name": "user",
          "type": "address"
        }
      ],
      "name": "getUserParticipations",
      "outputs": [
        {
          "components": [
            {
              "internalType": "uint256",
              "name": "totalAmountFrom",
              "type": "uint256"
            },
            {
              "internalType": "uint256",
              "name": "totalAmountTo",
              "type": "uint256"
            }
          ],
          "internalType": "struct Lottery.ParticipationInfo[]",
          "name": "",
          "type": "tuple[]"
        }
      ],
      "stateMutability": "view",
      "type": "function"
    },
    {
      "inputs": [],
      "name": "interval",
      "outputs": [
        {
          "internalType": "uint256",
          "name": "",
          "type": "uint256"
        }
      ],
      "stateMutability": "view",
      "type": "function"
    },
    {
      "inputs": [],
      "name": "lastWinner",
      "outputs": [
        {
          "internalType": "address",
          "name": "",
          "type": "address"
        }
      ],
      "stateMutability": "view",
      "type": "function"
    },
    {
      "inputs": [],
      "name": "lastWonAmount",
      "outputs": [
        {
          "internalType": "uint256",
          "name": "",
          "type": "uint256"
        }
      ],
      "stateMutability": "view",
      "type": "function"
    },
    {
      "inputs": [],
      "name": "lotteryToken",
      "outputs": [
        {
          "internalType": "address",
          "name": "",
          "type": "address"
        }
      ],
      "stateMutability": "view",
      "type": "function"
    },
    {
      "inputs": [],
      "name": "nextParticipateTimestamp",
      "outputs": [
        {
          "internalType": "uint256",
          "name": "",
          "type": "uint256"
        }
      ],
      "stateMutability": "view",
      "type": "function"
    },
    {
      "inputs": [
        {
          "internalType": "uint256",
          "name": "",
          "type": "uint256"
        }
      ],
      "name": "participants",
      "outputs": [
        {
          "internalType": "address",
          "name": "",
          "type": "address"
        }
      ],
      "stateMutability": "view",
      "type": "function"
    },
    {
      "inputs": [
        {
          "internalType": "uint256",
          "name": "_tokenAmount",
          "type": "uint256"
        }
      ],
      "name": "participate",
      "outputs": [
        {
          "internalType": "uint256",
          "name": "userParticipationId",
          "type": "uint256"
        }
      ],
      "stateMutability": "nonpayable",
      "type": "function"
    },
    {
      "inputs": [],
      "name": "randomNumber",
      "outputs": [
        {
          "internalType": "uint256",
          "name": "",
          "type": "uint256"
        }
      ],
      "stateMutability": "view",
      "type": "function"
    },
    {
      "inputs": [],
      "name": "randomWinnerIdx",
      "outputs": [
        {
          "internalType": "uint256",
          "name": "",
          "type": "uint256"
        }
      ],
      "stateMutability": "view",
      "type": "function"
    },
    {
      "inputs": [],
      "name": "rewardClaimed",
      "outputs": [
        {
          "internalType": "bool",
          "name": "",
          "type": "bool"
        }
      ],
      "stateMutability": "view",
      "type": "function"
    },
    {
      "inputs": [],
      "name": "selectRandomWinner",
      "outputs": [],
      "stateMutability": "nonpayable",
      "type": "function"
    },
    {
      "inputs": [],
      "name": "totalAmount",
      "outputs": [
        {
          "internalType": "uint256",
          "name": "",
          "type": "uint256"
        }
      ],
      "stateMutability": "view",
      "type": "function"
    },
    {
      "inputs": [],
      "name": "totalGamesPlayed",
      "outputs": [
        {
          "internalType": "uint256",
          "name": "",
          "type": "uint256"
        }
      ],
      "stateMutability": "view",
      "type": "function"
    },
    {
      "inputs": [],
      "name": "totalParticipants",
      "outputs": [
        {
          "internalType": "uint256",
          "name": "",
          "type": "uint256"
        }
      ],
      "stateMutability": "view",
      "type": "function"
    },
    {
      "inputs": [],
      "name": "totalPayoutToday",
      "outputs": [
        {
          "internalType": "uint256",
          "name": "",
          "type": "uint256"
        }
      ],
      "stateMutability": "view",
      "type": "function"
    },
    {
      "inputs": [],
      "name": "totalPlayedAmount",
      "outputs": [
        {
          "internalType": "uint256",
          "name": "",
          "type": "uint256"
        }
      ],
      "stateMutability": "view",
      "type": "function"
    },
    {
      "inputs": [],
      "name": "winNumber",
      "outputs": [
        {
          "internalType": "uint256",
          "name": "",
          "type": "uint256"
        }
      ],
      "stateMutability": "view",
      "type": "function"
    }
  ],
  "bytecode": "0x60806040523480156200001157600080fd5b506040516200226f3803806200226f83398181016040528101906200003791906200013c565b600073ffffffffffffffffffffffffffffffffffffffff168273ffffffffffffffffffffffffffffffffffffffff161415620000aa576040517f08c379a0000000000000000000000000000000000000000000000000000000008152600401620000a190620001a4565b60405180910390fd5b80600d8190555081600760006101000a81548173ffffffffffffffffffffffffffffffffffffffff021916908373ffffffffffffffffffffffffffffffffffffffff1602179055508042620001009190620001d7565b6008819055505050620002fe565b6000815190506200011f81620002ca565b92915050565b6000815190506200013681620002e4565b92915050565b600080604083850312156200015057600080fd5b600062000160858286016200010e565b9250506020620001738582860162000125565b9150509250929050565b60006200018c601e83620001c6565b91506200019982620002a1565b602082019050919050565b60006020820190508181036000830152620001bf816200017d565b9050919050565b600082825260208201905092915050565b6000620001e48262000268565b9150620001f18362000268565b9250827fffffffffffffffffffffffffffffffffffffffffffffffffffffffffffffffff0382111562000229576200022862000272565b5b828201905092915050565b6000620002418262000248565b9050919050565b600073ffffffffffffffffffffffffffffffffffffffff82169050919050565b6000819050919050565b7f4e487b7100000000000000000000000000000000000000000000000000000000600052601160045260246000fd5b7f4c6f74746572793a20696e76616c6964205f6c6f7474657279546f6b656e0000600082015250565b620002d58162000234565b8114620002e157600080fd5b50565b620002ef8162000268565b8114620002fb57600080fd5b50565b611f61806200030e6000396000f3fe608060405234801561001057600080fd5b50600436106101375760003560e01c8063845c9306116100b8578063a948915b1161007c578063a948915b14610332578063b0d1645f14610350578063ccbac9f514610380578063d5863e1d1461039e578063f54eb67e146103bc578063fe188184146103da57610137565b8063845c93061461028a57806394539467146102ba578063947a36fb146102d8578063a26dbf26146102f6578063a5dbdc121461031457610137565b80633c1e044b116100ff5780633c1e044b146101d05780634303707e146101ee5780635516c92d1461021e5780635c4921291461023c5780637638cc041461025a57610137565b806301b62b781461013c5780631180fe3b1461015a5780631a39d8ef146101645780631c823c381461018257806335c1d349146101a0575b600080fd5b6101446103f8565b6040516101519190611841565b60405180910390f35b61016261040b565b005b61016c610712565b60405161017991906119ee565b60405180910390f35b61018a610718565b60405161019791906119ee565b60405180910390f35b6101ba60048036038101906101b59190611450565b61071e565b6040516101c791906117a4565b60405180910390f35b6101d861075d565b6040516101e591906119ee565b60405180910390f35b61020860048036038101906102039190611450565b610763565b60405161021591906119ee565b60405180910390f35b6102266107ef565b60405161023391906119ee565b60405180910390f35b6102446107f7565b60405161025191906119ee565b60405180910390f35b610274600480360381019061026f91906113eb565b6107fd565b60405161028191906119ee565b60405180910390f35b6102a4600480360381019061029f9190611450565b610b45565b6040516102b191906119ee565b60405180910390f35b6102c2610de9565b6040516102cf91906117a4565b60405180910390f35b6102e0610e0f565b6040516102ed91906119ee565b60405180910390f35b6102fe610e15565b60405161030b91906119ee565b60405180910390f35b61031c610e1b565b60405161032991906119ee565b60405180910390f35b61033a610e21565b60405161034791906119ee565b60405180910390f35b61036a600480360381019061036591906113c2565b610e27565b604051610377919061181f565b60405180910390f35b610388610ed9565b60405161039591906119ee565b60405180910390f35b6103a6610edf565b6040516103b391906119ee565b60405180910390f35b6103c4610ee5565b6040516103d191906119ee565b60405180910390f35b6103e2610eeb565b6040516103ef91906117a4565b60405180910390f35b600560009054906101000a900460ff1681565b600854421015610450576040517f08c379a0000000000000000000000000000000000000000000000000000000008152600401610447906118ee565b60405180910390fd5b6000601080549050141561047757600d544261046c9190611ad4565b600881905550610710565b6000610487601080549050610763565b9050600d54426104979190611ad4565b6008819055506001600960008282546104b09190611ad4565b9250508190555060008082141561052e5760106000815481106104fc577f4e487b7100000000000000000000000000000000000000000000000000000000600052603260045260246000fd5b9060005260206000200160009054906101000a900473ffffffffffffffffffffffffffffffffffffffff1690506105a2565b601060018361053d9190611b2a565b81548110610574577f4e487b7100000000000000000000000000000000000000000000000000000000600052603260045260246000fd5b9060005260206000200160009054906101000a900473ffffffffffffffffffffffffffffffffffffffff1690505b600054600f60008373ffffffffffffffffffffffffffffffffffffffff1673ffffffffffffffffffffffffffffffffffffffff1681526020019081526020016000208190555080600b60006101000a81548173ffffffffffffffffffffffffffffffffffffffff021916908373ffffffffffffffffffffffffffffffffffffffff160217905550600054600c81905550600067ffffffffffffffff811115610673577f4e487b7100000000000000000000000000000000000000000000000000000000600052604160045260246000fd5b6040519080825280602002602001820160405280156106a15781602001602082028036833780820191505090505b50601090805190602001906106b79291906112dc565b50600080819055503373ffffffffffffffffffffffffffffffffffffffff167f8b128ab37d5ad73a5a884d21b9f84a0ac969c6b6e1a71400ee036c41c13a246f8360405161070591906119ee565b60405180910390a250505b565b60005481565b600a5481565b6010818154811061072e57600080fd5b906000526020600020016000915054906101000a900473ffffffffffffffffffffffffffffffffffffffff1681565b60085481565b60008133444260405160200161077b93929190611750565b6040516020818303038152906040528051906020012060001c61079e9190611c07565b6004819055506107e56040518060400160405280600f81526020017f72616e646f6d57696e6e65724964780000000000000000000000000000000000815250600454610f11565b6004549050919050565b600042905090565b60095481565b6000600560009054906101000a900460ff161561084f576040517f08c379a0000000000000000000000000000000000000000000000000000000008152600401610846906118ae565b60405180910390fd5b60006003549050600081141561089a576040517f08c379a00000000000000000000000000000000000000000000000000000000081526004016108919061194e565b60405180910390fd5b82600660008673ffffffffffffffffffffffffffffffffffffffff1673ffffffffffffffffffffffffffffffffffffffff168152602001908152602001600020805490501161091e576040517f08c379a0000000000000000000000000000000000000000000000000000000008152600401610915906119ae565b60405180910390fd5b6000600660008673ffffffffffffffffffffffffffffffffffffffff1673ffffffffffffffffffffffffffffffffffffffff1681526020019081526020016000208481548110610997577f4e487b7100000000000000000000000000000000000000000000000000000000600052603260045260246000fd5b9060005260206000209060020201604051806040016040529081600082015481526020016001820154815250509050806000015182101580156109de575080602001518211155b610a1d576040517f08c379a0000000000000000000000000000000000000000000000000000000008152600401610a149061190e565b60405180910390fd5b60005492506001600560006101000a81548160ff021916908315150217905550600760009054906101000a900473ffffffffffffffffffffffffffffffffffffffff1673ffffffffffffffffffffffffffffffffffffffff1663a9059cbb86856040518363ffffffff1660e01b8152600401610a9a9291906117f6565b602060405180830381600087803b158015610ab457600080fd5b505af1158015610ac8573d6000803e3d6000fd5b505050506040513d601f19601f82011682018060405250810190610aec9190611427565b508473ffffffffffffffffffffffffffffffffffffffff167fff8addc80c4bbde2468f5adb879c6604c48d7e9efbb2c66ae614abe2d3d020448585604051610b35929190611a09565b60405180910390a2505092915050565b600080821415610b8a576040517f08c379a0000000000000000000000000000000000000000000000000000000008152600401610b81906118ce565b60405180910390fd5b600854421115610bcf576040517f08c379a0000000000000000000000000000000000000000000000000000000008152600401610bc69061196e565b60405180910390fd5b610c1e333084600760009054906101000a900473ffffffffffffffffffffffffffffffffffffffff1673ffffffffffffffffffffffffffffffffffffffff16610fad909392919063ffffffff16565b60008054905060008382610c329190611ad4565b905060006040518060400160405280600185610c4e9190611ad4565b815260200183815250905081600081905550600660003373ffffffffffffffffffffffffffffffffffffffff1673ffffffffffffffffffffffffffffffffffffffff168152602001908152602001600020805490509350600660003373ffffffffffffffffffffffffffffffffffffffff1673ffffffffffffffffffffffffffffffffffffffff168152602001908152602001600020819080600181540180825580915050600190039060005260206000209060020201600090919091909150600082015181600001556020820151816001015550506010339080600181540180825580915050600190039060005260206000200160009091909190916101000a81548173ffffffffffffffffffffffffffffffffffffffff021916908373ffffffffffffffffffffffffffffffffffffffff1602179055503373ffffffffffffffffffffffffffffffffffffffff167fe309f49460ddf0ad1437ee7b81672aad0edb8753ad419a3ceab59838a610ebc68260000151836020015187604051610dd993929190611a32565b60405180910390a2505050919050565b600760009054906101000a900473ffffffffffffffffffffffffffffffffffffffff1681565b600d5481565b60025481565b60045481565b60035481565b6060600660008373ffffffffffffffffffffffffffffffffffffffff1673ffffffffffffffffffffffffffffffffffffffff168152602001908152602001600020805480602002602001604051908101604052809291908181526020016000905b82821015610ece57838290600052602060002090600202016040518060400160405290816000820154815260200160018201548152505081526020019060010190610e88565b505050509050919050565b600e5481565b60015481565b600c5481565b600b60009054906101000a900473ffffffffffffffffffffffffffffffffffffffff1681565b610fa98282604051602401610f2792919061187e565b6040516020818303038152906040527f9710a9d0000000000000000000000000000000000000000000000000000000007bffffffffffffffffffffffffffffffffffffffffffffffffffffffff19166020820180517bffffffffffffffffffffffffffffffffffffffffffffffffffffffff8381831617835250505050611036565b5050565b611030846323b872dd60e01b858585604051602401610fce939291906117bf565b604051602081830303815290604052907bffffffffffffffffffffffffffffffffffffffffffffffffffffffff19166020820180517bffffffffffffffffffffffffffffffffffffffffffffffffffffffff838183161783525050505061105f565b50505050565b60008151905060006a636f6e736f6c652e6c6f679050602083016000808483855afa5050505050565b60006110c1826040518060400160405280602081526020017f5361666545524332303a206c6f772d6c6576656c2063616c6c206661696c65648152508573ffffffffffffffffffffffffffffffffffffffff166111269092919063ffffffff16565b905060008151111561112157808060200190518101906110e19190611427565b611120576040517f08c379a0000000000000000000000000000000000000000000000000000000008152600401611117906119ce565b60405180910390fd5b5b505050565b6060611135848460008561113e565b90509392505050565b606082471015611183576040517f08c379a000000000000000000000000000000000000000000000000000000000815260040161117a9061192e565b60405180910390fd5b61118c85611252565b6111cb576040517f08c379a00000000000000000000000000000000000000000000000000000000081526004016111c29061198e565b60405180910390fd5b6000808673ffffffffffffffffffffffffffffffffffffffff1685876040516111f4919061178d565b60006040518083038185875af1925050503d8060008114611231576040519150601f19603f3d011682016040523d82523d6000602084013e611236565b606091505b5091509150611246828286611275565b92505050949350505050565b6000808273ffffffffffffffffffffffffffffffffffffffff163b119050919050565b60608315611285578290506112d5565b6000835111156112985782518084602001fd5b816040517f08c379a00000000000000000000000000000000000000000000000000000000081526004016112cc919061185c565b60405180910390fd5b9392505050565b828054828255906000526020600020908101928215611355579160200282015b828111156113545782518260006101000a81548173ffffffffffffffffffffffffffffffffffffffff021916908373ffffffffffffffffffffffffffffffffffffffff160217905550916020019190600101906112fc565b5b5090506113629190611366565b5090565b5b8082111561137f576000816000905550600101611367565b5090565b60008135905061139281611ee6565b92915050565b6000815190506113a781611efd565b92915050565b6000813590506113bc81611f14565b92915050565b6000602082840312156113d457600080fd5b60006113e284828501611383565b91505092915050565b600080604083850312156113fe57600080fd5b600061140c85828601611383565b925050602061141d858286016113ad565b9150509250929050565b60006020828403121561143957600080fd5b600061144784828501611398565b91505092915050565b60006020828403121561146257600080fd5b6000611470848285016113ad565b91505092915050565b600061148583836116ec565b60408301905092915050565b61149a81611b5e565b82525050565b6114b16114ac82611b5e565b611bd9565b82525050565b60006114c282611a79565b6114cc8185611aa7565b93506114d783611a69565b8060005b838110156115085781516114ef8882611479565b97506114fa83611a9a565b9250506001810190506114db565b5085935050505092915050565b61151e81611b70565b82525050565b600061152f82611a84565b6115398185611ab8565b9350611549818560208601611ba6565b80840191505092915050565b600061156082611a8f565b61156a8185611ac3565b935061157a818560208601611ba6565b61158381611c96565b840191505092915050565b600061159b601f83611ac3565b91506115a682611cb4565b602082019050919050565b60006115be601d83611ac3565b91506115c982611cdd565b602082019050919050565b60006115e1602283611ac3565b91506115ec82611d06565b604082019050919050565b6000611604601783611ac3565b915061160f82611d55565b602082019050919050565b6000611627602683611ac3565b915061163282611d7e565b604082019050919050565b600061164a602383611ac3565b915061165582611dcd565b604082019050919050565b600061166d601c83611ac3565b915061167882611e1c565b602082019050919050565b6000611690601d83611ac3565b915061169b82611e45565b602082019050919050565b60006116b3601c83611ac3565b91506116be82611e6e565b602082019050919050565b60006116d6602a83611ac3565b91506116e182611e97565b604082019050919050565b604082016000820151611702600085018261171b565b506020820151611715602085018261171b565b50505050565b61172481611b9c565b82525050565b61173381611b9c565b82525050565b61174a61174582611b9c565b611bfd565b82525050565b600061175c82866114a0565b60148201915061176c8285611739565b60208201915061177c8284611739565b602082019150819050949350505050565b60006117998284611524565b915081905092915050565b60006020820190506117b96000830184611491565b92915050565b60006060820190506117d46000830186611491565b6117e16020830185611491565b6117ee604083018461172a565b949350505050565b600060408201905061180b6000830185611491565b611818602083018461172a565b9392505050565b6000602082019050818103600083015261183981846114b7565b905092915050565b60006020820190506118566000830184611515565b92915050565b600060208201905081810360008301526118768184611555565b905092915050565b600060408201905081810360008301526118988185611555565b90506118a7602083018461172a565b9392505050565b600060208201905081810360008301526118c78161158e565b9050919050565b600060208201905081810360008301526118e7816115b1565b9050919050565b60006020820190508181036000830152611907816115d4565b9050919050565b60006020820190508181036000830152611927816115f7565b9050919050565b600060208201905081810360008301526119478161161a565b9050919050565b600060208201905081810360008301526119678161163d565b9050919050565b6000602082019050818103600083015261198781611660565b9050919050565b600060208201905081810360008301526119a781611683565b9050919050565b600060208201905081810360008301526119c7816116a6565b9050919050565b600060208201905081810360008301526119e7816116c9565b9050919050565b6000602082019050611a03600083018461172a565b92915050565b6000604082019050611a1e600083018561172a565b611a2b602083018461172a565b9392505050565b6000606082019050611a47600083018661172a565b611a54602083018561172a565b611a61604083018461172a565b949350505050565b6000819050602082019050919050565b600081519050919050565b600081519050919050565b600081519050919050565b6000602082019050919050565b600082825260208201905092915050565b600081905092915050565b600082825260208201905092915050565b6000611adf82611b9c565b9150611aea83611b9c565b9250827fffffffffffffffffffffffffffffffffffffffffffffffffffffffffffffffff03821115611b1f57611b1e611c38565b5b828201905092915050565b6000611b3582611b9c565b9150611b4083611b9c565b925082821015611b5357611b52611c38565b5b828203905092915050565b6000611b6982611b7c565b9050919050565b60008115159050919050565b600073ffffffffffffffffffffffffffffffffffffffff82169050919050565b6000819050919050565b60005b83811015611bc4578082015181840152602081019050611ba9565b83811115611bd3576000848401525b50505050565b6000611be482611beb565b9050919050565b6000611bf682611ca7565b9050919050565b6000819050919050565b6000611c1282611b9c565b9150611c1d83611b9c565b925082611c2d57611c2c611c67565b5b828206905092915050565b7f4e487b7100000000000000000000000000000000000000000000000000000000600052601160045260246000fd5b7f4e487b7100000000000000000000000000000000000000000000000000000000600052601260045260246000fd5b6000601f19601f8301169050919050565b60008160601b9050919050565b7f4c6f74746572793a2072657761726420616c726561647920636c61696d656400600082015250565b7f4c6f74746572793a20696e76616c6964205f746f6b656e416d6f756e74000000600082015250565b7f4c6f74746572793a20216e657874506172746963697061746554696d6573746160008201527f6d70000000000000000000000000000000000000000000000000000000000000602082015250565b7f4c6f74746572793a20696e76616c69642077696e6e6572000000000000000000600082015250565b7f416464726573733a20696e73756666696369656e742062616c616e636520666f60008201527f722063616c6c0000000000000000000000000000000000000000000000000000602082015250565b7f4c6f74746572793a2072616e646f6d2077696e6e6572206e6f742073656c656360008201527f7465640000000000000000000000000000000000000000000000000000000000602082015250565b7f4c6f74746572793a2068617320616c7265616479207374617274656400000000600082015250565b7f416464726573733a2063616c6c20746f206e6f6e2d636f6e7472616374000000600082015250565b7f4c6f74746572793a20696e76616c696420696e74657276616c20696400000000600082015250565b7f5361666545524332303a204552433230206f7065726174696f6e20646964206e60008201527f6f74207375636365656400000000000000000000000000000000000000000000602082015250565b611eef81611b5e565b8114611efa57600080fd5b50565b611f0681611b70565b8114611f1157600080fd5b50565b611f1d81611b9c565b8114611f2857600080fd5b5056fea2646970667358221220dd2b51e01890cb611f783ca3d3abe629a4d5a3908d4660e06302000f15007eb064736f6c63430008040033",
  "linkReferences": {},
  "deployedLinkReferences": {}
}