{
  "_format": "hh-sol-artifact-1",
  "contractName": "Lottery",
  "sourceName": "contracts/Lottery.sol",
  "abi": [
    {
      "inputs": [
        {
          "internalType": "address",
          "name": "_lotteryToken",
          "type": "address"
        },
        {
          "internalType": "uint256",
          "name": "_participateInterval",
          "type": "uint256"
        }
      ],
      "stateMutability": "nonpayable",
      "type": "constructor"
    },
    {
      "anonymous": false,
      "inputs": [
        {
          "indexed": true,
          "internalType": "address",
          "name": "txSender",
          "type": "address"
        },
        {
          "indexed": false,
          "internalType": "uint256",
          "name": "winningNumber",
          "type": "uint256"
        }
      ],
      "name": "RandomWinningNumberSelect",
      "type": "event"
    },
    {
      "anonymous": false,
      "inputs": [
        {
          "indexed": true,
          "internalType": "address",
          "name": "winner",
          "type": "address"
        },
        {
          "indexed": false,
          "internalType": "uint256",
          "name": "intervalId",
          "type": "uint256"
        },
        {
          "indexed": false,
          "internalType": "uint256",
          "name": "claimAmount",
          "type": "uint256"
        }
      ],
      "name": "WinnerClaim",
      "type": "event"
    },
    {
      "inputs": [
        {
          "internalType": "uint256",
          "name": "tokenAmount",
          "type": "uint256"
        }
      ],
      "name": "deposit",
      "outputs": [],
      "stateMutability": "nonpayable",
      "type": "function"
    },
    {
      "inputs": [
        {
          "internalType": "uint256",
          "name": "_participants",
          "type": "uint256"
        }
      ],
      "name": "generateRandomNumber",
      "outputs": [
        {
          "internalType": "uint256",
          "name": "",
          "type": "uint256"
        }
      ],
      "stateMutability": "nonpayable",
      "type": "function"
    },
    {
      "inputs": [],
      "name": "getAllWinners",
      "outputs": [
        {
          "components": [
            {
              "internalType": "address",
              "name": "winnerAddress",
              "type": "address"
            },
            {
              "internalType": "uint256",
              "name": "wonAmount",
              "type": "uint256"
            }
          ],
          "internalType": "struct Lottery.WinnersInfo[]",
          "name": "",
          "type": "tuple[]"
        }
      ],
      "stateMutability": "view",
      "type": "function"
    },
    {
      "inputs": [],
      "name": "getCurrect",
      "outputs": [
        {
          "internalType": "uint256",
          "name": "",
          "type": "uint256"
        }
      ],
      "stateMutability": "view",
      "type": "function"
    },
    {
      "inputs": [],
      "name": "getParticipants",
      "outputs": [
        {
          "components": [
            {
              "internalType": "address",
              "name": "participantAddress",
              "type": "address"
            },
            {
              "internalType": "uint256",
              "name": "tokenAmount",
              "type": "uint256"
            }
          ],
          "internalType": "struct Lottery.ParticipantsInfo[]",
          "name": "",
          "type": "tuple[]"
        }
      ],
      "stateMutability": "view",
      "type": "function"
    },
    {
      "inputs": [],
      "name": "interval",
      "outputs": [
        {
          "internalType": "uint256",
          "name": "",
          "type": "uint256"
        }
      ],
      "stateMutability": "view",
      "type": "function"
    },
    {
      "inputs": [],
      "name": "lastWinner",
      "outputs": [
        {
          "internalType": "address",
          "name": "",
          "type": "address"
        }
      ],
      "stateMutability": "view",
      "type": "function"
    },
    {
      "inputs": [],
      "name": "lastWonAmount",
      "outputs": [
        {
          "internalType": "uint256",
          "name": "",
          "type": "uint256"
        }
      ],
      "stateMutability": "view",
      "type": "function"
    },
    {
      "inputs": [],
      "name": "lotteryToken",
      "outputs": [
        {
          "internalType": "address",
          "name": "",
          "type": "address"
        }
      ],
      "stateMutability": "view",
      "type": "function"
    },
    {
      "inputs": [],
      "name": "nextParticipateTimestamp",
      "outputs": [
        {
          "internalType": "uint256",
          "name": "",
          "type": "uint256"
        }
      ],
      "stateMutability": "view",
      "type": "function"
    },
    {
      "inputs": [
        {
          "internalType": "uint256",
          "name": "tokenAmount",
          "type": "uint256"
        }
      ],
      "name": "participate",
      "outputs": [
        {
          "internalType": "uint256",
          "name": "userParticipationId",
          "type": "uint256"
        }
      ],
      "stateMutability": "nonpayable",
      "type": "function"
    },
    {
      "inputs": [],
      "name": "randomNumber",
      "outputs": [
        {
          "internalType": "uint256",
          "name": "",
          "type": "uint256"
        }
      ],
      "stateMutability": "view",
      "type": "function"
    },
    {
      "inputs": [],
      "name": "randomWinnerIdx",
      "outputs": [
        {
          "internalType": "uint256",
          "name": "",
          "type": "uint256"
        }
      ],
      "stateMutability": "view",
      "type": "function"
    },
    {
      "inputs": [],
      "name": "rewardClaimed",
      "outputs": [
        {
          "internalType": "bool",
          "name": "",
          "type": "bool"
        }
      ],
      "stateMutability": "view",
      "type": "function"
    },
    {
      "inputs": [],
      "name": "selectRandomWinner",
      "outputs": [],
      "stateMutability": "nonpayable",
      "type": "function"
    },
    {
      "inputs": [],
      "name": "totalAllTimePrizePool",
      "outputs": [
        {
          "internalType": "uint256",
          "name": "",
          "type": "uint256"
        }
      ],
      "stateMutability": "view",
      "type": "function"
    },
    {
      "inputs": [],
      "name": "totalGamesPlayed",
      "outputs": [
        {
          "internalType": "uint256",
          "name": "",
          "type": "uint256"
        }
      ],
      "stateMutability": "view",
      "type": "function"
    },
    {
      "inputs": [],
      "name": "totalParticipants",
      "outputs": [
        {
          "internalType": "uint256",
          "name": "",
          "type": "uint256"
        }
      ],
      "stateMutability": "view",
      "type": "function"
    },
    {
      "inputs": [],
      "name": "totalPayoutToday",
      "outputs": [
        {
          "internalType": "uint256",
          "name": "",
          "type": "uint256"
        }
      ],
      "stateMutability": "view",
      "type": "function"
    },
    {
      "inputs": [],
      "name": "totalPlayedAmount",
      "outputs": [
        {
          "internalType": "uint256",
          "name": "",
          "type": "uint256"
        }
      ],
      "stateMutability": "view",
      "type": "function"
    },
    {
      "inputs": [],
      "name": "totalPrizePool",
      "outputs": [
        {
          "internalType": "uint256",
          "name": "",
          "type": "uint256"
        }
      ],
      "stateMutability": "view",
      "type": "function"
    },
    {
      "inputs": [
        {
          "internalType": "address",
          "name": "",
          "type": "address"
        }
      ],
      "name": "usersContractBalance",
      "outputs": [
        {
          "internalType": "uint256",
          "name": "",
          "type": "uint256"
        }
      ],
      "stateMutability": "view",
      "type": "function"
    },
    {
      "inputs": [],
      "name": "winNumber",
      "outputs": [
        {
          "internalType": "uint256",
          "name": "",
          "type": "uint256"
        }
      ],
      "stateMutability": "view",
      "type": "function"
    },
    {
      "inputs": [
        {
          "internalType": "uint256",
          "name": "_tokenAmount",
          "type": "uint256"
        }
      ],
      "name": "withdraw",
      "outputs": [],
      "stateMutability": "nonpayable",
      "type": "function"
    }
  ],
  "bytecode": "0x60806040523480156200001157600080fd5b50604051620020ae380380620020ae83398181016040528101906200003791906200013c565b600073ffffffffffffffffffffffffffffffffffffffff168273ffffffffffffffffffffffffffffffffffffffff161415620000aa576040517f08c379a0000000000000000000000000000000000000000000000000000000008152600401620000a190620001a4565b60405180910390fd5b80600e8190555081600c60006101000a81548173ffffffffffffffffffffffffffffffffffffffff021916908373ffffffffffffffffffffffffffffffffffffffff1602179055508042620001009190620001d7565b600d819055505050620002fe565b6000815190506200011f81620002ca565b92915050565b6000815190506200013681620002e4565b92915050565b600080604083850312156200015057600080fd5b600062000160858286016200010e565b9250506020620001738582860162000125565b9150509250929050565b60006200018c601e83620001c6565b91506200019982620002a1565b602082019050919050565b60006020820190508181036000830152620001bf816200017d565b9050919050565b600082825260208201905092915050565b6000620001e48262000268565b9150620001f18362000268565b9250827fffffffffffffffffffffffffffffffffffffffffffffffffffffffffffffffff0382111562000229576200022862000272565b5b828201905092915050565b6000620002418262000248565b9050919050565b600073ffffffffffffffffffffffffffffffffffffffff82169050919050565b6000819050919050565b7f4e487b7100000000000000000000000000000000000000000000000000000000600052601160045260246000fd5b7f4c6f74746572793a20696e76616c6964205f6c6f7474657279546f6b656e0000600082015250565b620002d58162000234565b8114620002e157600080fd5b50565b620002ef8162000268565b8114620002fb57600080fd5b50565b611da0806200030e6000396000f3fe608060405234801561001057600080fd5b50600436106101585760003560e01c806394539467116100c3578063ccbac9f51161007c578063ccbac9f514610385578063d5863e1d146103a3578063d5b8d644146103c1578063dc6b8627146103f1578063f54eb67e1461040f578063fe1881841461042d57610158565b806394539467146102d3578063947a36fb146102f1578063a26dbf261461030f578063a5dbdc121461032d578063a948915b1461034b578063b6b55f251461036957610158565b80633c1e044b116101155780633c1e044b146101fb5780634303707e146102195780635516c92d146102495780635aa68ac0146102675780635c49212914610285578063845c9306146102a357610158565b806301b62b781461015d5780631180fe3b1461017b578063141e538a146101855780631c823c38146101a35780632e1a7d4d146101c1578063398ab9a7146101dd575b600080fd5b61016561044b565b604051610172919061178f565b60405180910390f35b61018361045e565b005b61018d6107f6565b60405161019a91906118cc565b60405180910390f35b6101ab6107fc565b6040516101b891906118cc565b60405180910390f35b6101db60048036038101906101d6919061130e565b610802565b005b6101e561098c565b6040516101f291906118cc565b60405180910390f35b610203610992565b60405161021091906118cc565b60405180910390f35b610233600480360381019061022e919061130e565b610998565b60405161024091906118cc565b60405180910390f35b6102516109e3565b60405161025e91906118cc565b60405180910390f35b61026f6109eb565b60405161027c919061174b565b60405180910390f35b61028d610aaa565b60405161029a91906118cc565b60405180910390f35b6102bd60048036038101906102b8919061130e565b610ab0565b6040516102ca91906118cc565b60405180910390f35b6102db610ce6565b6040516102e891906116d0565b60405180910390f35b6102f9610d0c565b60405161030691906118cc565b60405180910390f35b610317610d12565b60405161032491906118cc565b60405180910390f35b610335610d18565b60405161034291906118cc565b60405180910390f35b610353610d1e565b60405161036091906118cc565b60405180910390f35b610383600480360381019061037e919061130e565b610d24565b005b61038d610dfe565b60405161039a91906118cc565b60405180910390f35b6103ab610e04565b6040516103b891906118cc565b60405180910390f35b6103db60048036038101906103d691906112bc565b610e0a565b6040516103e891906118cc565b60405180910390f35b6103f9610e22565b604051610406919061176d565b60405180910390f35b610417610ee1565b60405161042491906118cc565b60405180910390f35b610435610ee7565b60405161044291906116d0565b60405180910390f35b600a60009054906101000a900460ff1681565b600d544210156104a3576040517f08c379a000000000000000000000000000000000000000000000000000000000815260040161049a906117cc565b60405180910390fd5b600060118054905014156104ca57600e54426104bf919061198b565b600d819055506107f4565b60006104da601180549050610998565b9050600e54426104ea919061198b565b600d8190555060008082141561056e576011600081548110610535577f4e487b7100000000000000000000000000000000000000000000000000000000600052603260045260246000fd5b906000526020600020906002020160000160009054906101000a900473ffffffffffffffffffffffffffffffffffffffff1690506105e9565b601160018361057d91906119e1565b815481106105b4577f4e487b7100000000000000000000000000000000000000000000000000000000600052603260045260246000fd5b906000526020600020906002020160000160009054906101000a900473ffffffffffffffffffffffffffffffffffffffff1690505b6000600b60008373ffffffffffffffffffffffffffffffffffffffff1673ffffffffffffffffffffffffffffffffffffffff1681526020019081526020016000205490506000548161063b919061198b565b600b60008473ffffffffffffffffffffffffffffffffffffffff1673ffffffffffffffffffffffffffffffffffffffff16815260200190815260200160002081905550601260405180604001604052808473ffffffffffffffffffffffffffffffffffffffff168152602001600054815250908060018154018082558091505060019003906000526020600020906002020160009091909190915060008201518160000160006101000a81548173ffffffffffffffffffffffffffffffffffffffff021916908373ffffffffffffffffffffffffffffffffffffffff16021790555060208201518160010155505081600660006101000a81548173ffffffffffffffffffffffffffffffffffffffff021916908373ffffffffffffffffffffffffffffffffffffffff160217905550600054600781905550601160006107819190611213565b6000808190555060016004600082825461079b919061198b565b925050819055503373ffffffffffffffffffffffffffffffffffffffff167f8b128ab37d5ad73a5a884d21b9f84a0ac969c6b6e1a71400ee036c41c13a246f846040516107e891906118cc565b60405180910390a25050505b565b60035481565b60055481565b6000600b60003373ffffffffffffffffffffffffffffffffffffffff1673ffffffffffffffffffffffffffffffffffffffff16815260200190815260200160002054905081811015610889576040517f08c379a00000000000000000000000000000000000000000000000000000000081526004016108809061184c565b60405180910390fd5b600c60009054906101000a900473ffffffffffffffffffffffffffffffffffffffff1673ffffffffffffffffffffffffffffffffffffffff1663a9059cbb33846040518363ffffffff1660e01b81526004016108e6929190611722565b602060405180830381600087803b15801561090057600080fd5b505af1158015610914573d6000803e3d6000fd5b505050506040513d601f19601f8201168201806040525081019061093891906112e5565b50818161094591906119e1565b600b60003373ffffffffffffffffffffffffffffffffffffffff1673ffffffffffffffffffffffffffffffffffffffff168152602001908152602001600020819055505050565b60005481565b600d5481565b6000813344426040516020016109b09392919061167c565b6040516020818303038152906040528051906020012060001c6109d39190611abe565b6009819055506009549050919050565b600042905090565b60606011805480602002602001604051908101604052809291908181526020016000905b82821015610aa157838290600052602060002090600202016040518060400160405290816000820160009054906101000a900473ffffffffffffffffffffffffffffffffffffffff1673ffffffffffffffffffffffffffffffffffffffff1673ffffffffffffffffffffffffffffffffffffffff16815260200160018201548152505081526020019060010190610a0f565b50505050905090565b60045481565b600080600b60003373ffffffffffffffffffffffffffffffffffffffff1673ffffffffffffffffffffffffffffffffffffffff16815260200190815260200160002054905060008311610b38576040517f08c379a0000000000000000000000000000000000000000000000000000000008152600401610b2f9061180c565b60405180910390fd5b600d54421115610b7d576040517f08c379a0000000000000000000000000000000000000000000000000000000008152600401610b749061182c565b60405180910390fd5b82811015610bc0576040517f08c379a0000000000000000000000000000000000000000000000000000000008152600401610bb79061188c565b60405180910390fd5b8281610bcc91906119e1565b600b60003373ffffffffffffffffffffffffffffffffffffffff1673ffffffffffffffffffffffffffffffffffffffff1681526020019081526020016000208190555082600054610c1d919061198b565b600081905550601160405180604001604052803373ffffffffffffffffffffffffffffffffffffffff16815260200185815250908060018154018082558091505060019003906000526020600020906002020160009091909190915060008201518160000160006101000a81548173ffffffffffffffffffffffffffffffffffffffff021916908373ffffffffffffffffffffffffffffffffffffffff16021790555060208201518160010155505082600354610cda919061198b565b60038190555050919050565b600c60009054906101000a900473ffffffffffffffffffffffffffffffffffffffff1681565b600e5481565b60025481565b60095481565b60085481565b6000811415610d68576040517f08c379a0000000000000000000000000000000000000000000000000000000008152600401610d5f9061180c565b60405180910390fd5b610db7333083600c60009054906101000a900473ffffffffffffffffffffffffffffffffffffffff1673ffffffffffffffffffffffffffffffffffffffff16610f0d909392919063ffffffff16565b80600b60003373ffffffffffffffffffffffffffffffffffffffff1673ffffffffffffffffffffffffffffffffffffffff1681526020019081526020016000208190555050565b600f5481565b60015481565b600b6020528060005260406000206000915090505481565b60606012805480602002602001604051908101604052809291908181526020016000905b82821015610ed857838290600052602060002090600202016040518060400160405290816000820160009054906101000a900473ffffffffffffffffffffffffffffffffffffffff1673ffffffffffffffffffffffffffffffffffffffff1673ffffffffffffffffffffffffffffffffffffffff16815260200160018201548152505081526020019060010190610e46565b50505050905090565b60075481565b600660009054906101000a900473ffffffffffffffffffffffffffffffffffffffff1681565b610f90846323b872dd60e01b858585604051602401610f2e939291906116eb565b604051602081830303815290604052907bffffffffffffffffffffffffffffffffffffffffffffffffffffffff19166020820180517bffffffffffffffffffffffffffffffffffffffffffffffffffffffff8381831617835250505050610f96565b50505050565b6000610ff8826040518060400160405280602081526020017f5361666545524332303a206c6f772d6c6576656c2063616c6c206661696c65648152508573ffffffffffffffffffffffffffffffffffffffff1661105d9092919063ffffffff16565b9050600081511115611058578080602001905181019061101891906112e5565b611057576040517f08c379a000000000000000000000000000000000000000000000000000000000815260040161104e906118ac565b60405180910390fd5b5b505050565b606061106c8484600085611075565b90509392505050565b6060824710156110ba576040517f08c379a00000000000000000000000000000000000000000000000000000000081526004016110b1906117ec565b60405180910390fd5b6110c385611189565b611102576040517f08c379a00000000000000000000000000000000000000000000000000000000081526004016110f99061186c565b60405180910390fd5b6000808673ffffffffffffffffffffffffffffffffffffffff16858760405161112b91906116b9565b60006040518083038185875af1925050503d8060008114611168576040519150601f19603f3d011682016040523d82523d6000602084013e61116d565b606091505b509150915061117d8282866111ac565b92505050949350505050565b6000808273ffffffffffffffffffffffffffffffffffffffff163b119050919050565b606083156111bc5782905061120c565b6000835111156111cf5782518084602001fd5b816040517f08c379a000000000000000000000000000000000000000000000000000000000815260040161120391906117aa565b60405180910390fd5b9392505050565b50805460008255600202906000526020600020908101906112349190611237565b50565b5b8082111561127957600080820160006101000a81549073ffffffffffffffffffffffffffffffffffffffff0219169055600182016000905550600201611238565b5090565b60008135905061128c81611d25565b92915050565b6000815190506112a181611d3c565b92915050565b6000813590506112b681611d53565b92915050565b6000602082840312156112ce57600080fd5b60006112dc8482850161127d565b91505092915050565b6000602082840312156112f757600080fd5b600061130584828501611292565b91505092915050565b60006020828403121561132057600080fd5b600061132e848285016112a7565b91505092915050565b600061134383836115e9565b60408301905092915050565b600061135b8383611618565b60408301905092915050565b61137081611a15565b82525050565b61137f81611a15565b82525050565b61139661139182611a15565b611a90565b82525050565b60006113a782611907565b6113b1818561194d565b93506113bc836118e7565b8060005b838110156113ed5781516113d48882611337565b97506113df83611933565b9250506001810190506113c0565b5085935050505092915050565b600061140582611912565b61140f818561195e565b935061141a836118f7565b8060005b8381101561144b578151611432888261134f565b975061143d83611940565b92505060018101905061141e565b5085935050505092915050565b61146181611a27565b82525050565b60006114728261191d565b61147c818561196f565b935061148c818560208601611a5d565b80840191505092915050565b60006114a382611928565b6114ad818561197a565b93506114bd818560208601611a5d565b6114c681611b4d565b840191505092915050565b60006114de60228361197a565b91506114e982611b6b565b604082019050919050565b600061150160268361197a565b915061150c82611bba565b604082019050919050565b6000611524601c8361197a565b915061152f82611c09565b602082019050919050565b6000611547601c8361197a565b915061155282611c32565b602082019050919050565b600061156a601a8361197a565b915061157582611c5b565b602082019050919050565b600061158d601d8361197a565b915061159882611c84565b602082019050919050565b60006115b0601c8361197a565b91506115bb82611cad565b602082019050919050565b60006115d3602a8361197a565b91506115de82611cd6565b604082019050919050565b6040820160008201516115ff6000850182611367565b5060208201516116126020850182611647565b50505050565b60408201600082015161162e6000850182611367565b5060208201516116416020850182611647565b50505050565b61165081611a53565b82525050565b61165f81611a53565b82525050565b61167661167182611a53565b611ab4565b82525050565b60006116888286611385565b6014820191506116988285611665565b6020820191506116a88284611665565b602082019150819050949350505050565b60006116c58284611467565b915081905092915050565b60006020820190506116e56000830184611376565b92915050565b60006060820190506117006000830186611376565b61170d6020830185611376565b61171a6040830184611656565b949350505050565b60006040820190506117376000830185611376565b6117446020830184611656565b9392505050565b60006020820190508181036000830152611765818461139c565b905092915050565b6000602082019050818103600083015261178781846113fa565b905092915050565b60006020820190506117a46000830184611458565b92915050565b600060208201905081810360008301526117c48184611498565b905092915050565b600060208201905081810360008301526117e5816114d1565b9050919050565b60006020820190508181036000830152611805816114f4565b9050919050565b6000602082019050818103600083015261182581611517565b9050919050565b600060208201905081810360008301526118458161153a565b9050919050565b600060208201905081810360008301526118658161155d565b9050919050565b6000602082019050818103600083015261188581611580565b9050919050565b600060208201905081810360008301526118a5816115a3565b9050919050565b600060208201905081810360008301526118c5816115c6565b9050919050565b60006020820190506118e16000830184611656565b92915050565b6000819050602082019050919050565b6000819050602082019050919050565b600081519050919050565b600081519050919050565b600081519050919050565b600081519050919050565b6000602082019050919050565b6000602082019050919050565b600082825260208201905092915050565b600082825260208201905092915050565b600081905092915050565b600082825260208201905092915050565b600061199682611a53565b91506119a183611a53565b9250827fffffffffffffffffffffffffffffffffffffffffffffffffffffffffffffffff038211156119d6576119d5611aef565b5b828201905092915050565b60006119ec82611a53565b91506119f783611a53565b925082821015611a0a57611a09611aef565b5b828203905092915050565b6000611a2082611a33565b9050919050565b60008115159050919050565b600073ffffffffffffffffffffffffffffffffffffffff82169050919050565b6000819050919050565b60005b83811015611a7b578082015181840152602081019050611a60565b83811115611a8a576000848401525b50505050565b6000611a9b82611aa2565b9050919050565b6000611aad82611b5e565b9050919050565b6000819050919050565b6000611ac982611a53565b9150611ad483611a53565b925082611ae457611ae3611b1e565b5b828206905092915050565b7f4e487b7100000000000000000000000000000000000000000000000000000000600052601160045260246000fd5b7f4e487b7100000000000000000000000000000000000000000000000000000000600052601260045260246000fd5b6000601f19601f8301169050919050565b60008160601b9050919050565b7f4c6f74746572793a20216e657874506172746963697061746554696d6573746160008201527f6d70000000000000000000000000000000000000000000000000000000000000602082015250565b7f416464726573733a20696e73756666696369656e742062616c616e636520666f60008201527f722063616c6c0000000000000000000000000000000000000000000000000000602082015250565b7f4c6f74746572793a20696e76616c696420746f6b656e416d6f756e7400000000600082015250565b7f4c6f74746572793a2068617320616c7265616479207374617274656400000000600082015250565b7f4c6f74746572793a206e6f20656e6f7567682062616c616e6365000000000000600082015250565b7f416464726573733a2063616c6c20746f206e6f6e2d636f6e7472616374000000600082015250565b7f4c6f74746572793a696e73756666696369656e742062616c616e636500000000600082015250565b7f5361666545524332303a204552433230206f7065726174696f6e20646964206e60008201527f6f74207375636365656400000000000000000000000000000000000000000000602082015250565b611d2e81611a15565b8114611d3957600080fd5b50565b611d4581611a27565b8114611d5057600080fd5b50565b611d5c81611a53565b8114611d6757600080fd5b5056fea264697066735822122078a3b3d3b8e12d4a230c12d7e751e62e54985b790ad9103f3032d87f41cff8e164736f6c63430008040033",
  "linkReferences": {},
  "deployedLinkReferences": {}
}