{
  "_format": "hh-sol-artifact-1",
  "contractName": "Lottery",
  "sourceName": "contracts/Lottery.sol",
  "abi": [
    {
      "inputs": [
        {
          "internalType": "address",
          "name": "_lotteryToken",
          "type": "address"
        },
        {
          "internalType": "uint256",
          "name": "_participateInterval",
          "type": "uint256"
        }
      ],
      "stateMutability": "nonpayable",
      "type": "constructor"
    },
    {
      "inputs": [],
      "name": "OnlySimulatedBackend",
      "type": "error"
    },
    {
      "anonymous": false,
      "inputs": [
        {
          "indexed": true,
          "internalType": "address",
          "name": "winner",
          "type": "address"
        },
        {
          "indexed": true,
          "internalType": "uint256",
          "name": "wonAmount",
          "type": "uint256"
        }
      ],
      "name": "WinnerSelect",
      "type": "event"
    },
    {
      "inputs": [
        {
          "internalType": "bytes",
          "name": "",
          "type": "bytes"
        }
      ],
      "name": "checkUpkeep",
      "outputs": [
        {
          "internalType": "bool",
          "name": "upkeepNeeded",
          "type": "bool"
        },
        {
          "internalType": "bytes",
          "name": "",
          "type": "bytes"
        }
      ],
      "stateMutability": "view",
      "type": "function"
    },
    {
      "inputs": [
        {
          "internalType": "uint256",
          "name": "_tokenAmount",
          "type": "uint256"
        }
      ],
      "name": "deposit",
      "outputs": [],
      "stateMutability": "nonpayable",
      "type": "function"
    },
    {
      "inputs": [],
      "name": "getAllWinners",
      "outputs": [
        {
          "components": [
            {
              "internalType": "address",
              "name": "winnerAddress",
              "type": "address"
            },
            {
              "internalType": "uint256",
              "name": "wonAmount",
              "type": "uint256"
            }
          ],
          "internalType": "struct Lottery.WinnersInfo[]",
          "name": "",
          "type": "tuple[]"
        }
      ],
      "stateMutability": "view",
      "type": "function"
    },
    {
      "inputs": [],
      "name": "getCurrentTimestamp",
      "outputs": [
        {
          "internalType": "uint256",
          "name": "",
          "type": "uint256"
        }
      ],
      "stateMutability": "view",
      "type": "function"
    },
    {
      "inputs": [],
      "name": "getParticipants",
      "outputs": [
        {
          "components": [
            {
              "internalType": "address",
              "name": "participantAddress",
              "type": "address"
            },
            {
              "internalType": "uint256",
              "name": "depositedAmount",
              "type": "uint256"
            },
            {
              "internalType": "uint256",
              "name": "startPoint",
              "type": "uint256"
            },
            {
              "internalType": "uint256",
              "name": "endPoint",
              "type": "uint256"
            }
          ],
          "internalType": "struct Lottery.ParticipantsInfo[]",
          "name": "",
          "type": "tuple[]"
        }
      ],
      "stateMutability": "view",
      "type": "function"
    },
    {
      "inputs": [],
      "name": "interval",
      "outputs": [
        {
          "internalType": "uint256",
          "name": "",
          "type": "uint256"
        }
      ],
      "stateMutability": "view",
      "type": "function"
    },
    {
      "inputs": [],
      "name": "lastWinner",
      "outputs": [
        {
          "internalType": "address",
          "name": "",
          "type": "address"
        }
      ],
      "stateMutability": "view",
      "type": "function"
    },
    {
      "inputs": [],
      "name": "lastWonAmount",
      "outputs": [
        {
          "internalType": "uint256",
          "name": "",
          "type": "uint256"
        }
      ],
      "stateMutability": "view",
      "type": "function"
    },
    {
      "inputs": [],
      "name": "lotteryToken",
      "outputs": [
        {
          "internalType": "address",
          "name": "",
          "type": "address"
        }
      ],
      "stateMutability": "view",
      "type": "function"
    },
    {
      "inputs": [],
      "name": "nextParticipateTimestamp",
      "outputs": [
        {
          "internalType": "uint256",
          "name": "",
          "type": "uint256"
        }
      ],
      "stateMutability": "view",
      "type": "function"
    },
    {
      "inputs": [
        {
          "internalType": "uint256",
          "name": "_tokenAmount",
          "type": "uint256"
        }
      ],
      "name": "participate",
      "outputs": [],
      "stateMutability": "nonpayable",
      "type": "function"
    },
    {
      "inputs": [
        {
          "internalType": "bytes",
          "name": "performData",
          "type": "bytes"
        }
      ],
      "name": "performUpkeep",
      "outputs": [],
      "stateMutability": "nonpayable",
      "type": "function"
    },
    {
      "inputs": [],
      "name": "totalAllTimePrizePool",
      "outputs": [
        {
          "internalType": "uint256",
          "name": "",
          "type": "uint256"
        }
      ],
      "stateMutability": "view",
      "type": "function"
    },
    {
      "inputs": [],
      "name": "totalGamesPlayed",
      "outputs": [
        {
          "internalType": "uint256",
          "name": "",
          "type": "uint256"
        }
      ],
      "stateMutability": "view",
      "type": "function"
    },
    {
      "inputs": [],
      "name": "totalPrizePool",
      "outputs": [
        {
          "internalType": "uint256",
          "name": "",
          "type": "uint256"
        }
      ],
      "stateMutability": "view",
      "type": "function"
    },
    {
      "inputs": [
        {
          "internalType": "address",
          "name": "",
          "type": "address"
        }
      ],
      "name": "usersContractBalance",
      "outputs": [
        {
          "internalType": "uint256",
          "name": "",
          "type": "uint256"
        }
      ],
      "stateMutability": "view",
      "type": "function"
    },
    {
      "inputs": [
        {
          "internalType": "address",
          "name": "",
          "type": "address"
        }
      ],
      "name": "usersDrawBalance",
      "outputs": [
        {
          "internalType": "uint256",
          "name": "",
          "type": "uint256"
        }
      ],
      "stateMutability": "view",
      "type": "function"
    },
    {
      "inputs": [
        {
          "internalType": "uint256",
          "name": "_tokenAmount",
          "type": "uint256"
        }
      ],
      "name": "withdraw",
      "outputs": [],
      "stateMutability": "nonpayable",
      "type": "function"
    }
  ],
  "bytecode": "0x60806040523480156200001157600080fd5b5060405162001d5c38038062001d5c83398181016040528101906200003791906200013b565b600073ffffffffffffffffffffffffffffffffffffffff168273ffffffffffffffffffffffffffffffffffffffff161415620000aa576040517f08c379a0000000000000000000000000000000000000000000000000000000008152600401620000a190620001a3565b60405180910390fd5b80600181905550816000806101000a81548173ffffffffffffffffffffffffffffffffffffffff021916908373ffffffffffffffffffffffffffffffffffffffff1602179055508042620000ff9190620001d6565b6002819055505050620002fd565b6000815190506200011e81620002c9565b92915050565b6000815190506200013581620002e3565b92915050565b600080604083850312156200014f57600080fd5b60006200015f858286016200010d565b9250506020620001728582860162000124565b9150509250929050565b60006200018b601e83620001c5565b91506200019882620002a0565b602082019050919050565b60006020820190508181036000830152620001be816200017c565b9050919050565b600082825260208201905092915050565b6000620001e38262000267565b9150620001f08362000267565b9250827fffffffffffffffffffffffffffffffffffffffffffffffffffffffffffffffff0382111562000228576200022762000271565b5b828201905092915050565b6000620002408262000247565b9050919050565b600073ffffffffffffffffffffffffffffffffffffffff82169050919050565b6000819050919050565b7f4e487b7100000000000000000000000000000000000000000000000000000000600052601160045260246000fd5b7f4c6f74746572793a20696e76616c6964205f6c6f7474657279546f6b656e0000600082015250565b620002d48162000233565b8114620002e057600080fd5b50565b620002ee8162000267565b8114620002fa57600080fd5b50565b611a4f806200030d6000396000f3fe608060405234801561001057600080fd5b50600436106101165760003560e01c8063845c9306116100a2578063b6b55f2511610071578063b6b55f25146102c0578063d5b8d644146102dc578063dc6b86271461030c578063f54eb67e1461032a578063fe1881841461034857610116565b8063845c930614610238578063880c13a7146102545780639453946714610284578063947a36fb146102a257610116565b80634585e33b116100e95780634585e33b146101915780635aa68ac0146101ad5780635c492129146101cb5780636c9230db146101e95780636e04ff0d1461020757610116565b8063141e538a1461011b5780632e1a7d4d14610139578063398ab9a7146101555780633c1e044b14610173575b600080fd5b610123610366565b6040516101309190611655565b60405180910390f35b610153600480360381019061014e91906111b7565b61036c565b005b61015d6104f5565b60405161016a9190611655565b60405180910390f35b61017b6104fb565b6040516101889190611655565b60405180910390f35b6101ab60048036038101906101a69190611172565b610501565b005b6101b561055d565b6040516101c29190611541565b60405180910390f35b6101d3610630565b6040516101e09190611655565b60405180910390f35b6101f1610636565b6040516101fe9190611655565b60405180910390f35b610221600480360381019061021c9190611172565b61063e565b60405161022f929190611585565b60405180910390f35b610252600480360381019061024d91906111b7565b610651565b005b61026e60048036038101906102699190611120565b61090f565b60405161027b9190611655565b60405180910390f35b61028c610927565b60405161029991906114c6565b60405180910390f35b6102aa61094b565b6040516102b79190611655565b60405180910390f35b6102da60048036038101906102d591906111b7565b610951565b005b6102f660048036038101906102f19190611120565b610a9e565b6040516103039190611655565b60405180910390f35b610314610ab6565b6040516103219190611563565b60405180910390f35b610332610b75565b60405161033f9190611655565b60405180910390f35b610350610b7b565b60405161035d91906114c6565b60405180910390f35b60065481565b80600360003373ffffffffffffffffffffffffffffffffffffffff1673ffffffffffffffffffffffffffffffffffffffff1681526020019081526020016000205410156103ee576040517f08c379a00000000000000000000000000000000000000000000000000000000081526004016103e5906115f5565b60405180910390fd5b60008054906101000a900473ffffffffffffffffffffffffffffffffffffffff1673ffffffffffffffffffffffffffffffffffffffff1663a9059cbb33836040518363ffffffff1660e01b8152600401610449929190611518565b602060405180830381600087803b15801561046357600080fd5b505af1158015610477573d6000803e3d6000fd5b505050506040513d601f19601f8201168201806040525081019061049b9190611149565b5080600360003373ffffffffffffffffffffffffffffffffffffffff1673ffffffffffffffffffffffffffffffffffffffff16815260200190815260200160002060008282546104eb9190611765565b9250508190555050565b60055481565b60025481565b600061050d838361063e565b50905080610550576040517f08c379a000000000000000000000000000000000000000000000000000000000815260040161054790611615565b60405180910390fd5b610558610ba1565b505050565b6060600a805480602002602001604051908101604052809291908181526020016000905b8282101561062757838290600052602060002090600402016040518060800160405290816000820160009054906101000a900473ffffffffffffffffffffffffffffffffffffffff1673ffffffffffffffffffffffffffffffffffffffff1673ffffffffffffffffffffffffffffffffffffffff168152602001600182015481526020016002820154815260200160038201548152505081526020019060010190610581565b50505050905090565b60075481565b600042905090565b6000606060025442101591509250929050565b60008111610694576040517f08c379a000000000000000000000000000000000000000000000000000000000815260040161068b906115b5565b60405180910390fd5b6002544211156106d9576040517f08c379a00000000000000000000000000000000000000000000000000000000081526004016106d0906115d5565b60405180910390fd5b80600360003373ffffffffffffffffffffffffffffffffffffffff1673ffffffffffffffffffffffffffffffffffffffff16815260200190815260200160002054101561075b576040517f08c379a000000000000000000000000000000000000000000000000000000000815260040161075290611635565b60405180910390fd5b80600460003373ffffffffffffffffffffffffffffffffffffffff1673ffffffffffffffffffffffffffffffffffffffff16815260200190815260200160002060008282546107aa919061170f565b92505081905550600a60405180608001604052803373ffffffffffffffffffffffffffffffffffffffff1681526020018381526020016005548152602001836005546107f6919061170f565b815250908060018154018082558091505060019003906000526020600020906004020160009091909190915060008201518160000160006101000a81548173ffffffffffffffffffffffffffffffffffffffff021916908373ffffffffffffffffffffffffffffffffffffffff160217905550602082015181600101556040820151816002015560608201518160030155505080600554610897919061170f565b60058190555080600360003373ffffffffffffffffffffffffffffffffffffffff1673ffffffffffffffffffffffffffffffffffffffff16815260200190815260200160002060008282546108ec9190611765565b925050819055508060066000828254610905919061170f565b9250508190555050565b60046020528060005260406000206000915090505481565b60008054906101000a900473ffffffffffffffffffffffffffffffffffffffff1681565b60015481565b6000811415610995576040517f08c379a000000000000000000000000000000000000000000000000000000000815260040161098c906115b5565b60405180910390fd5b60008054906101000a900473ffffffffffffffffffffffffffffffffffffffff1673ffffffffffffffffffffffffffffffffffffffff166323b872dd3330846040518463ffffffff1660e01b81526004016109f2939291906114e1565b602060405180830381600087803b158015610a0c57600080fd5b505af1158015610a20573d6000803e3d6000fd5b505050506040513d601f19601f82011682018060405250810190610a449190611149565b5080600360003373ffffffffffffffffffffffffffffffffffffffff1673ffffffffffffffffffffffffffffffffffffffff1681526020019081526020016000206000828254610a94919061170f565b9250508190555050565b60036020528060005260406000206000915090505481565b6060600b805480602002602001604051908101604052809291908181526020016000905b82821015610b6c57838290600052602060002090600202016040518060400160405290816000820160009054906101000a900473ffffffffffffffffffffffffffffffffffffffff1673ffffffffffffffffffffffffffffffffffffffff1673ffffffffffffffffffffffffffffffffffffffff16815260200160018201548152505081526020019060010190610ada565b50505050905090565b60085481565b600960009054906101000a900473ffffffffffffffffffffffffffffffffffffffff1681565b6000600a805490501415610bc85760015442610bbd919061170f565b600281905550610e7c565b6000610bd2610e7e565b9050600b60405180604001604052808373ffffffffffffffffffffffffffffffffffffffff168152602001600554815250908060018154018082558091505060019003906000526020600020906002020160009091909190915060008201518160000160006101000a81548173ffffffffffffffffffffffffffffffffffffffff021916908373ffffffffffffffffffffffffffffffffffffffff16021790555060208201518160010155505080600960006101000a81548173ffffffffffffffffffffffffffffffffffffffff021916908373ffffffffffffffffffffffffffffffffffffffff160217905550600554600360008373ffffffffffffffffffffffffffffffffffffffff1673ffffffffffffffffffffffffffffffffffffffff1681526020019081526020016000206000828254610d11919061170f565b92505081905550600554600881905550600160076000828254610d34919061170f565b9250508190555060015442610d49919061170f565b6002819055506005548173ffffffffffffffffffffffffffffffffffffffff167f6fd0f3d9dfe1fc855741134e12830945e13fd19fd6a1a40acced1344e44c5be360405160405180910390a3600a6000610da3919061101d565b60056000905560005b600a805490508111610e795760046000600a8381548110610df6577f4e487b7100000000000000000000000000000000000000000000000000000000600052603260045260246000fd5b906000526020600020906004020160000160009054906101000a900473ffffffffffffffffffffffffffffffffffffffff1673ffffffffffffffffffffffffffffffffffffffff1673ffffffffffffffffffffffffffffffffffffffff168152602001908152602001600020600090558080610e7190611814565b915050610dac565b50505b565b60008060016005544442604051602001610e9992919061149a565b6040516020818303038152906040528051906020012060001c610ebc9190611867565b610ec6919061170f565b9050600080600090505b600a805490508111611014576000600a8281548110610f18577f4e487b7100000000000000000000000000000000000000000000000000000000600052603260045260246000fd5b9060005260206000209060040201600201548410158015610f845750600a8281548110610f6e577f4e487b7100000000000000000000000000000000000000000000000000000000600052603260045260246000fd5b9060005260206000209060040201600301548411155b9050801561100057600a8281548110610fc6577f4e487b7100000000000000000000000000000000000000000000000000000000600052603260045260246000fd5b906000526020600020906004020160000160009054906101000a900473ffffffffffffffffffffffffffffffffffffffff16925050611014565b50808061100c90611814565b915050610ed0565b50809250505090565b508054600082556004029060005260206000209081019061103e9190611041565b50565b5b8082111561109357600080820160006101000a81549073ffffffffffffffffffffffffffffffffffffffff021916905560018201600090556002820160009055600382016000905550600401611042565b5090565b6000813590506110a6816119d4565b92915050565b6000815190506110bb816119eb565b92915050565b60008083601f8401126110d357600080fd5b8235905067ffffffffffffffff8111156110ec57600080fd5b60208301915083600182028301111561110457600080fd5b9250929050565b60008135905061111a81611a02565b92915050565b60006020828403121561113257600080fd5b600061114084828501611097565b91505092915050565b60006020828403121561115b57600080fd5b6000611169848285016110ac565b91505092915050565b6000806020838503121561118557600080fd5b600083013567ffffffffffffffff81111561119f57600080fd5b6111ab858286016110c1565b92509250509250929050565b6000602082840312156111c957600080fd5b60006111d78482850161110b565b91505092915050565b60006111ec83836113e1565b60808301905092915050565b60006112048383611436565b60408301905092915050565b61121981611799565b82525050565b61122881611799565b82525050565b600061123982611690565b61124381856116cb565b935061124e83611670565b8060005b8381101561127f57815161126688826111e0565b9750611271836116b1565b925050600181019050611252565b5085935050505092915050565b60006112978261169b565b6112a181856116dc565b93506112ac83611680565b8060005b838110156112dd5781516112c488826111f8565b97506112cf836116be565b9250506001810190506112b0565b5085935050505092915050565b6112f3816117ab565b82525050565b6000611304826116a6565b61130e81856116ed565b935061131e8185602086016117e1565b611327816118f6565b840191505092915050565b600061133f601c836116fe565b915061134a82611907565b602082019050919050565b6000611362601c836116fe565b915061136d82611930565b602082019050919050565b6000611385601a836116fe565b915061139082611959565b602082019050919050565b60006113a8601a836116fe565b91506113b382611982565b602082019050919050565b60006113cb601c836116fe565b91506113d6826119ab565b602082019050919050565b6080820160008201516113f76000850182611210565b50602082015161140a6020850182611465565b50604082015161141d6040850182611465565b5060608201516114306060850182611465565b50505050565b60408201600082015161144c6000850182611210565b50602082015161145f6020850182611465565b50505050565b61146e816117d7565b82525050565b61147d816117d7565b82525050565b61149461148f826117d7565b61185d565b82525050565b60006114a68285611483565b6020820191506114b68284611483565b6020820191508190509392505050565b60006020820190506114db600083018461121f565b92915050565b60006060820190506114f6600083018661121f565b611503602083018561121f565b6115106040830184611474565b949350505050565b600060408201905061152d600083018561121f565b61153a6020830184611474565b9392505050565b6000602082019050818103600083015261155b818461122e565b905092915050565b6000602082019050818103600083015261157d818461128c565b905092915050565b600060408201905061159a60008301856112ea565b81810360208301526115ac81846112f9565b90509392505050565b600060208201905081810360008301526115ce81611332565b9050919050565b600060208201905081810360008301526115ee81611355565b9050919050565b6000602082019050818103600083015261160e81611378565b9050919050565b6000602082019050818103600083015261162e8161139b565b9050919050565b6000602082019050818103600083015261164e816113be565b9050919050565b600060208201905061166a6000830184611474565b92915050565b6000819050602082019050919050565b6000819050602082019050919050565b600081519050919050565b600081519050919050565b600081519050919050565b6000602082019050919050565b6000602082019050919050565b600082825260208201905092915050565b600082825260208201905092915050565b600082825260208201905092915050565b600082825260208201905092915050565b600061171a826117d7565b9150611725836117d7565b9250827fffffffffffffffffffffffffffffffffffffffffffffffffffffffffffffffff0382111561175a57611759611898565b5b828201905092915050565b6000611770826117d7565b915061177b836117d7565b92508282101561178e5761178d611898565b5b828203905092915050565b60006117a4826117b7565b9050919050565b60008115159050919050565b600073ffffffffffffffffffffffffffffffffffffffff82169050919050565b6000819050919050565b60005b838110156117ff5780820151818401526020810190506117e4565b8381111561180e576000848401525b50505050565b600061181f826117d7565b91507fffffffffffffffffffffffffffffffffffffffffffffffffffffffffffffffff82141561185257611851611898565b5b600182019050919050565b6000819050919050565b6000611872826117d7565b915061187d836117d7565b92508261188d5761188c6118c7565b5b828206905092915050565b7f4e487b7100000000000000000000000000000000000000000000000000000000600052601160045260246000fd5b7f4e487b7100000000000000000000000000000000000000000000000000000000600052601260045260246000fd5b6000601f19601f8301169050919050565b7f4c6f74746572793a20696e76616c696420746f6b656e416d6f756e7400000000600082015250565b7f4c6f74746572793a2068617320616c7265616479207374617274656400000000600082015250565b7f4c6f74746572793a206e6f20656e6f7567682062616c616e6365000000000000600082015250565b7f4c6f74746572793a204e6f206e65656420746f2075706b656570000000000000600082015250565b7f4c6f74746572793a696e73756666696369656e742062616c616e636500000000600082015250565b6119dd81611799565b81146119e857600080fd5b50565b6119f4816117ab565b81146119ff57600080fd5b50565b611a0b816117d7565b8114611a1657600080fd5b5056fea2646970667358221220584210501b8373ccb1b7d26e78df87a6252d40da48c6abac7add45cdbed0194664736f6c63430008040033",
  "linkReferences": {},
  "deployedLinkReferences": {}
}