{
  "_format": "hh-sol-artifact-1",
  "contractName": "Lottery",
  "sourceName": "contracts/Lottery.sol",
  "abi": [
    {
      "inputs": [
        {
          "internalType": "address",
          "name": "_lotteryToken",
          "type": "address"
        },
        {
          "internalType": "uint256",
          "name": "_participateInterval",
          "type": "uint256"
        },
        {
          "internalType": "address",
          "name": "_lotteryVRFAddr",
          "type": "address"
        }
      ],
      "stateMutability": "nonpayable",
      "type": "constructor"
    },
    {
      "inputs": [],
      "name": "OnlySimulatedBackend",
      "type": "error"
    },
    {
      "anonymous": false,
      "inputs": [
        {
          "indexed": true,
          "internalType": "address",
          "name": "winner",
          "type": "address"
        },
        {
          "indexed": true,
          "internalType": "uint256",
          "name": "wonAmount",
          "type": "uint256"
        }
      ],
      "name": "WinnerSelect",
      "type": "event"
    },
    {
      "inputs": [
        {
          "internalType": "bytes",
          "name": "",
          "type": "bytes"
        }
      ],
      "name": "checkUpkeep",
      "outputs": [
        {
          "internalType": "bool",
          "name": "upkeepNeeded",
          "type": "bool"
        },
        {
          "internalType": "bytes",
          "name": "",
          "type": "bytes"
        }
      ],
      "stateMutability": "view",
      "type": "function"
    },
    {
      "inputs": [
        {
          "internalType": "uint256",
          "name": "tokenAmount",
          "type": "uint256"
        }
      ],
      "name": "deposit",
      "outputs": [],
      "stateMutability": "nonpayable",
      "type": "function"
    },
    {
      "inputs": [],
      "name": "getAllWinners",
      "outputs": [
        {
          "components": [
            {
              "internalType": "address",
              "name": "winnerAddress",
              "type": "address"
            },
            {
              "internalType": "uint256",
              "name": "wonAmount",
              "type": "uint256"
            }
          ],
          "internalType": "struct Lottery.WinnersInfo[]",
          "name": "",
          "type": "tuple[]"
        }
      ],
      "stateMutability": "view",
      "type": "function"
    },
    {
      "inputs": [],
      "name": "getCurrentTimestamp",
      "outputs": [
        {
          "internalType": "uint256",
          "name": "",
          "type": "uint256"
        }
      ],
      "stateMutability": "view",
      "type": "function"
    },
    {
      "inputs": [],
      "name": "getParticipants",
      "outputs": [
        {
          "components": [
            {
              "internalType": "address",
              "name": "participantAddress",
              "type": "address"
            },
            {
              "internalType": "uint256",
              "name": "depositedAmount",
              "type": "uint256"
            },
            {
              "internalType": "uint256",
              "name": "startPoint",
              "type": "uint256"
            },
            {
              "internalType": "uint256",
              "name": "endPoint",
              "type": "uint256"
            }
          ],
          "internalType": "struct Lottery.ParticipantsInfo[]",
          "name": "",
          "type": "tuple[]"
        }
      ],
      "stateMutability": "view",
      "type": "function"
    },
    {
      "inputs": [],
      "name": "interval",
      "outputs": [
        {
          "internalType": "uint256",
          "name": "",
          "type": "uint256"
        }
      ],
      "stateMutability": "view",
      "type": "function"
    },
    {
      "inputs": [],
      "name": "lastWinner",
      "outputs": [
        {
          "internalType": "address",
          "name": "",
          "type": "address"
        }
      ],
      "stateMutability": "view",
      "type": "function"
    },
    {
      "inputs": [],
      "name": "lastWonAmount",
      "outputs": [
        {
          "internalType": "uint256",
          "name": "",
          "type": "uint256"
        }
      ],
      "stateMutability": "view",
      "type": "function"
    },
    {
      "inputs": [],
      "name": "lotteryToken",
      "outputs": [
        {
          "internalType": "address",
          "name": "",
          "type": "address"
        }
      ],
      "stateMutability": "view",
      "type": "function"
    },
    {
      "inputs": [],
      "name": "nextParticipateTimestamp",
      "outputs": [
        {
          "internalType": "uint256",
          "name": "",
          "type": "uint256"
        }
      ],
      "stateMutability": "view",
      "type": "function"
    },
    {
      "inputs": [
        {
          "internalType": "uint256",
          "name": "_tokenAmount",
          "type": "uint256"
        }
      ],
      "name": "participate",
      "outputs": [],
      "stateMutability": "nonpayable",
      "type": "function"
    },
    {
      "inputs": [
        {
          "internalType": "bytes",
          "name": "performData",
          "type": "bytes"
        }
      ],
      "name": "performUpkeep",
      "outputs": [],
      "stateMutability": "nonpayable",
      "type": "function"
    },
    {
      "inputs": [],
      "name": "totalAllTimePrizePool",
      "outputs": [
        {
          "internalType": "uint256",
          "name": "",
          "type": "uint256"
        }
      ],
      "stateMutability": "view",
      "type": "function"
    },
    {
      "inputs": [],
      "name": "totalGamesPlayed",
      "outputs": [
        {
          "internalType": "uint256",
          "name": "",
          "type": "uint256"
        }
      ],
      "stateMutability": "view",
      "type": "function"
    },
    {
      "inputs": [],
      "name": "totalPrizePool",
      "outputs": [
        {
          "internalType": "uint256",
          "name": "",
          "type": "uint256"
        }
      ],
      "stateMutability": "view",
      "type": "function"
    },
    {
      "inputs": [
        {
          "internalType": "address",
          "name": "",
          "type": "address"
        }
      ],
      "name": "usersContractBalance",
      "outputs": [
        {
          "internalType": "uint256",
          "name": "",
          "type": "uint256"
        }
      ],
      "stateMutability": "view",
      "type": "function"
    },
    {
      "inputs": [
        {
          "internalType": "uint256",
          "name": "_tokenAmount",
          "type": "uint256"
        }
      ],
      "name": "withdraw",
      "outputs": [],
      "stateMutability": "nonpayable",
      "type": "function"
    }
  ],
  "bytecode": "0x608060405234801561001057600080fd5b50604051620011c4380380620011c4833981016040819052610031916100fc565b6001600160a01b03831661008b5760405162461bcd60e51b815260206004820152601e60248201527f4c6f74746572793a20696e76616c6964205f6c6f7474657279546f6b656e0000604482015260640160405180910390fd5b6002829055600180546001600160a01b0319166001600160a01b0385161790556100b58242610137565b600355600080546001600160a01b0319166001600160a01b03929092169190911790555061015b9050565b80516001600160a01b03811681146100f757600080fd5b919050565b600080600060608486031215610110578283fd5b610119846100e0565b92506020840151915061012e604085016100e0565b90509250925092565b6000821982111561015657634e487b7160e01b81526011600452602481fd5b500190565b611059806200016b6000396000f3fe608060405234801561001057600080fd5b506004361061010b5760003560e01c80636e04ff0d116100a2578063b6b55f2511610071578063b6b55f25146101fb578063d5b8d6441461020e578063dc6b86271461022e578063f54eb67e14610243578063fe1881841461024c57600080fd5b80636e04ff0d1461018a578063845c9306146101b457806394539467146101c7578063947a36fb146101f257600080fd5b80634585e33b116100de5780634585e33b146101535780635aa68ac0146101665780635c4921291461017b5780636c9230db1461018457600080fd5b8063141e538a146101105780632e1a7d4d1461012c578063398ab9a7146101415780633c1e044b1461014a575b600080fd5b61011960065481565b6040519081526020015b60405180910390f35b61013f61013a366004610e39565b61025f565b005b61011960055481565b61011960035481565b61013f610161366004610dcc565b61036f565b61016e6103cf565b6040516101239190610eb1565b61011960075481565b42610119565b6101a6610198366004610dcc565b505060035442101590606090565b604051610123929190610f69565b61013f6101c2366004610e39565b610459565b6001546101da906001600160a01b031681565b6040516001600160a01b039091168152602001610123565b61011960025481565b61013f610209366004610e39565b610635565b61011961021c366004610d85565b60046020526000908152604090205481565b6102366106b9565b6040516101239190610f1e565b61011960085481565b6009546101da906001600160a01b031681565b336000908152600460205260409020548111156102c35760405162461bcd60e51b815260206004820152601a60248201527f4c6f74746572793a206e6f20656e6f7567682062616c616e636500000000000060448201526064015b60405180910390fd5b60015460405163a9059cbb60e01b8152336004820152602481018390526001600160a01b039091169063a9059cbb90604401602060405180830381600087803b15801561030f57600080fd5b505af1158015610323573d6000803e3d6000fd5b505050506040513d601f19601f820116820180604052508101906103479190610dac565b503360009081526004602052604081208054839290610367908490610faf565b909155505050565b600354421015806103c25760405162461bcd60e51b815260206004820152601a60248201527f4c6f74746572793a204e6f206e65656420746f2075706b65657000000000000060448201526064016102ba565b6103ca610725565b505050565b6060600a805480602002602001604051908101604052809291908181526020016000905b82821015610450576000848152602090819020604080516080810182526004860290920180546001600160a01b031683526001808201548486015260028201549284019290925260030154606083015290835290920191016103f3565b50505050905090565b600081116104a95760405162461bcd60e51b815260206004820152601c60248201527f4c6f74746572793a20696e76616c696420746f6b656e416d6f756e740000000060448201526064016102ba565b6003544211156104fb5760405162461bcd60e51b815260206004820152601c60248201527f4c6f74746572793a2068617320616c726561647920737461727465640000000060448201526064016102ba565b3360009081526004602052604090205481111561055a5760405162461bcd60e51b815260206004820152601c60248201527f4c6f74746572793a696e73756666696369656e742062616c616e63650000000060448201526064016102ba565b600a6040518060800160405280336001600160a01b031681526020018381526020016005548152602001836005546105929190610f97565b90528154600180820184556000938452602093849020835160049093020180546001600160a01b0319166001600160a01b03909316929092178255928201519281019290925560408101516002830155606001516003909101556005546105fa908290610f97565b600555336000908152600460205260408120805483929061061c908490610faf565b9250508190555080600660008282546103679190610f97565b806106825760405162461bcd60e51b815260206004820152601c60248201527f4c6f74746572793a20696e76616c696420746f6b656e416d6f756e740000000060448201526064016102ba565b60015461069a906001600160a01b031633308461089f565b3360009081526004602052604081208054839290610367908490610f97565b6060600b805480602002602001604051908101604052809291908181526020016000905b82821015610450576000848152602090819020604080518082019091526002850290910180546001600160a01b031682526001908101548284015290835290920191016106dd565b600a5461073e576002546107399042610f97565b600355565b60006107486108ff565b9050600254426107589190610f97565b6003556040805180820182526001600160a01b03838116808352600580546020808601918252600b8054600181018255600091825296517f0175b7a638427703f0dbe7bb9bbf987a2551717b34e79f33b5b1008d1fa01db9600290980297880180546001600160a01b031916919097161790955590517f0175b7a638427703f0dbe7bb9bbf987a2551717b34e79f33b5b1008d1fa01dba90950194909455549082526004909252918220805491929091610813908490610f97565b9091555050600980546001600160a01b0319166001600160a01b038316179055600554600855600780546001919060009061084f908490610f97565b90915550506005546040516001600160a01b038316907f6fd0f3d9dfe1fc855741134e12830945e13fd19fd6a1a40acced1344e44c5be390600090a3610897600a6000610d29565b506000600555565b604080516001600160a01b0385811660248301528416604482015260648082018490528251808303909101815260849091019091526020810180516001600160e01b03166323b872dd60e01b1790526108f9908590610ad4565b50505050565b60008060009054906101000a90046001600160a01b03166001600160a01b031663e0c862896040518163ffffffff1660e01b8152600401600060405180830381600087803b15801561095057600080fd5b505af1158015610964573d6000803e3d6000fd5b505060008054600554604051632cdc85e960e21b815260048101919091529193506001600160a01b0316915063b37217a49060240160206040518083038186803b1580156109b157600080fd5b505afa1580156109c5573d6000803e3d6000fd5b505050506040513d601f19601f820116820180604052508101906109e99190610e51565b90506000805b600a548111610acd576000600a8281548110610a1b57634e487b7160e01b600052603260045260246000fd5b9060005260206000209060040201600201548410158015610a6e5750600a8281548110610a5857634e487b7160e01b600052603260045260246000fd5b9060005260206000209060040201600301548411155b90508015610aba57600a8281548110610a9757634e487b7160e01b600052603260045260246000fd5b60009182526020909120600490910201546001600160a01b03169250610acd9050565b5080610ac581610ff2565b9150506109ef565b5092915050565b6000610b29826040518060400160405280602081526020017f5361666545524332303a206c6f772d6c6576656c2063616c6c206661696c6564815250856001600160a01b0316610ba69092919063ffffffff16565b8051909150156103ca5780806020019051810190610b479190610dac565b6103ca5760405162461bcd60e51b815260206004820152602a60248201527f5361666545524332303a204552433230206f7065726174696f6e20646964206e6044820152691bdd081cdd58d8d9595960b21b60648201526084016102ba565b6060610bb58484600085610bbf565b90505b9392505050565b606082471015610c205760405162461bcd60e51b815260206004820152602660248201527f416464726573733a20696e73756666696369656e742062616c616e636520666f6044820152651c8818d85b1b60d21b60648201526084016102ba565b6001600160a01b0385163b610c775760405162461bcd60e51b815260206004820152601d60248201527f416464726573733a2063616c6c20746f206e6f6e2d636f6e747261637400000060448201526064016102ba565b600080866001600160a01b03168587604051610c939190610e95565b60006040518083038185875af1925050503d8060008114610cd0576040519150601f19603f3d011682016040523d82523d6000602084013e610cd5565b606091505b5091509150610ce5828286610cf0565b979650505050505050565b60608315610cff575081610bb8565b825115610d0f5782518084602001fd5b8160405162461bcd60e51b81526004016102ba9190610f84565b5080546000825560040290600052602060002090810190610d4a9190610d4d565b50565b5b80821115610d815780546001600160a01b0319168155600060018201819055600282018190556003820155600401610d4e565b5090565b600060208284031215610d96578081fd5b81356001600160a01b0381168114610bb8578182fd5b600060208284031215610dbd578081fd5b81518015158114610bb8578182fd5b60008060208385031215610dde578081fd5b823567ffffffffffffffff80821115610df5578283fd5b818501915085601f830112610e08578283fd5b813581811115610e16578384fd5b866020828501011115610e27578384fd5b60209290920196919550909350505050565b600060208284031215610e4a578081fd5b5035919050565b600060208284031215610e62578081fd5b5051919050565b60008151808452610e81816020860160208601610fc6565b601f01601f19169290920160200192915050565b60008251610ea7818460208701610fc6565b9190910192915050565b602080825282518282018190526000919060409081850190868401855b82811015610f1157815180516001600160a01b03168552868101518786015285810151868601526060908101519085015260809093019290850190600101610ece565b5091979650505050505050565b602080825282518282018190526000919060409081850190868401855b82811015610f1157815180516001600160a01b03168552860151868501529284019290850190600101610f3b565b8215158152604060208201526000610bb56040830184610e69565b602081526000610bb86020830184610e69565b60008219821115610faa57610faa61100d565b500190565b600082821015610fc157610fc161100d565b500390565b60005b83811015610fe1578181015183820152602001610fc9565b838111156108f95750506000910152565b60006000198214156110065761100661100d565b5060010190565b634e487b7160e01b600052601160045260246000fdfea2646970667358221220727bb35e70b1814c34490c8489fbebff38f6b6bea32bc2c0524b851da4e88c5c64736f6c63430008040033",
  "linkReferences": {},
  "deployedLinkReferences": {}
}