{
  "_format": "hh-sol-artifact-1",
  "contractName": "Lottery",
  "sourceName": "contracts/Lottery.sol",
  "abi": [
    {
      "inputs": [
        {
          "internalType": "address",
          "name": "_lotteryToken",
          "type": "address"
        },
        {
          "internalType": "uint256",
          "name": "_participateInterval",
          "type": "uint256"
        }
      ],
      "stateMutability": "nonpayable",
      "type": "constructor"
    },
    {
      "anonymous": false,
      "inputs": [
        {
          "indexed": true,
          "internalType": "address",
          "name": "txSender",
          "type": "address"
        },
        {
          "indexed": false,
          "internalType": "uint256",
          "name": "winningNumber",
          "type": "uint256"
        }
      ],
      "name": "RandomWinningNumberSelect",
      "type": "event"
    },
    {
      "anonymous": false,
      "inputs": [
        {
          "indexed": true,
          "internalType": "address",
          "name": "winner",
          "type": "address"
        },
        {
          "indexed": false,
          "internalType": "uint256",
          "name": "intervalId",
          "type": "uint256"
        },
        {
          "indexed": false,
          "internalType": "uint256",
          "name": "claimAmount",
          "type": "uint256"
        }
      ],
      "name": "WinnerClaim",
      "type": "event"
    },
    {
      "inputs": [
        {
          "internalType": "uint256",
          "name": "tokenAmount",
          "type": "uint256"
        }
      ],
      "name": "deposit",
      "outputs": [],
      "stateMutability": "nonpayable",
      "type": "function"
    },
    {
      "inputs": [
        {
          "internalType": "uint256",
          "name": "_participants",
          "type": "uint256"
        }
      ],
      "name": "generateRandomNumber",
      "outputs": [
        {
          "internalType": "uint256",
          "name": "",
          "type": "uint256"
        }
      ],
      "stateMutability": "nonpayable",
      "type": "function"
    },
    {
      "inputs": [],
      "name": "getAllWinners",
      "outputs": [
        {
          "components": [
            {
              "internalType": "address",
              "name": "winnerAddress",
              "type": "address"
            },
            {
              "internalType": "uint256",
              "name": "wonAmount",
              "type": "uint256"
            }
          ],
          "internalType": "struct Lottery.WinnersInfo[]",
          "name": "",
          "type": "tuple[]"
        }
      ],
      "stateMutability": "view",
      "type": "function"
    },
    {
      "inputs": [],
      "name": "getCurrect",
      "outputs": [
        {
          "internalType": "uint256",
          "name": "",
          "type": "uint256"
        }
      ],
      "stateMutability": "view",
      "type": "function"
    },
    {
      "inputs": [],
      "name": "getParticipants",
      "outputs": [
        {
          "components": [
            {
              "internalType": "address",
              "name": "participantAddress",
              "type": "address"
            },
            {
              "internalType": "uint256",
              "name": "tokenAmount",
              "type": "uint256"
            }
          ],
          "internalType": "struct Lottery.ParticipantsInfo[]",
          "name": "",
          "type": "tuple[]"
        }
      ],
      "stateMutability": "view",
      "type": "function"
    },
    {
      "inputs": [],
      "name": "interval",
      "outputs": [
        {
          "internalType": "uint256",
          "name": "",
          "type": "uint256"
        }
      ],
      "stateMutability": "view",
      "type": "function"
    },
    {
      "inputs": [],
      "name": "lastWinner",
      "outputs": [
        {
          "internalType": "address",
          "name": "",
          "type": "address"
        }
      ],
      "stateMutability": "view",
      "type": "function"
    },
    {
      "inputs": [],
      "name": "lastWonAmount",
      "outputs": [
        {
          "internalType": "uint256",
          "name": "",
          "type": "uint256"
        }
      ],
      "stateMutability": "view",
      "type": "function"
    },
    {
      "inputs": [],
      "name": "lotteryToken",
      "outputs": [
        {
          "internalType": "address",
          "name": "",
          "type": "address"
        }
      ],
      "stateMutability": "view",
      "type": "function"
    },
    {
      "inputs": [],
      "name": "nextParticipateTimestamp",
      "outputs": [
        {
          "internalType": "uint256",
          "name": "",
          "type": "uint256"
        }
      ],
      "stateMutability": "view",
      "type": "function"
    },
    {
      "inputs": [
        {
          "internalType": "uint256",
          "name": "tokenAmount",
          "type": "uint256"
        }
      ],
      "name": "participate",
      "outputs": [
        {
          "internalType": "uint256",
          "name": "userParticipationId",
          "type": "uint256"
        }
      ],
      "stateMutability": "nonpayable",
      "type": "function"
    },
    {
      "inputs": [],
      "name": "randomNumber",
      "outputs": [
        {
          "internalType": "uint256",
          "name": "",
          "type": "uint256"
        }
      ],
      "stateMutability": "view",
      "type": "function"
    },
    {
      "inputs": [],
      "name": "randomWinnerIdx",
      "outputs": [
        {
          "internalType": "uint256",
          "name": "",
          "type": "uint256"
        }
      ],
      "stateMutability": "view",
      "type": "function"
    },
    {
      "inputs": [],
      "name": "rewardClaimed",
      "outputs": [
        {
          "internalType": "bool",
          "name": "",
          "type": "bool"
        }
      ],
      "stateMutability": "view",
      "type": "function"
    },
    {
      "inputs": [],
      "name": "selectRandomWinner",
      "outputs": [],
      "stateMutability": "nonpayable",
      "type": "function"
    },
    {
      "inputs": [],
      "name": "totalAllTimePrizePool",
      "outputs": [
        {
          "internalType": "uint256",
          "name": "",
          "type": "uint256"
        }
      ],
      "stateMutability": "view",
      "type": "function"
    },
    {
      "inputs": [],
      "name": "totalGamesPlayed",
      "outputs": [
        {
          "internalType": "uint256",
          "name": "",
          "type": "uint256"
        }
      ],
      "stateMutability": "view",
      "type": "function"
    },
    {
      "inputs": [],
      "name": "totalParticipants",
      "outputs": [
        {
          "internalType": "uint256",
          "name": "",
          "type": "uint256"
        }
      ],
      "stateMutability": "view",
      "type": "function"
    },
    {
      "inputs": [],
      "name": "totalPayoutToday",
      "outputs": [
        {
          "internalType": "uint256",
          "name": "",
          "type": "uint256"
        }
      ],
      "stateMutability": "view",
      "type": "function"
    },
    {
      "inputs": [],
      "name": "totalPlayedAmount",
      "outputs": [
        {
          "internalType": "uint256",
          "name": "",
          "type": "uint256"
        }
      ],
      "stateMutability": "view",
      "type": "function"
    },
    {
      "inputs": [],
      "name": "totalPrizePool",
      "outputs": [
        {
          "internalType": "uint256",
          "name": "",
          "type": "uint256"
        }
      ],
      "stateMutability": "view",
      "type": "function"
    },
    {
      "inputs": [
        {
          "internalType": "address",
          "name": "",
          "type": "address"
        }
      ],
      "name": "usersContractBalance",
      "outputs": [
        {
          "internalType": "uint256",
          "name": "",
          "type": "uint256"
        }
      ],
      "stateMutability": "view",
      "type": "function"
    },
    {
      "inputs": [],
      "name": "winNumber",
      "outputs": [
        {
          "internalType": "uint256",
          "name": "",
          "type": "uint256"
        }
      ],
      "stateMutability": "view",
      "type": "function"
    },
    {
      "inputs": [
        {
          "internalType": "uint256",
          "name": "_tokenAmount",
          "type": "uint256"
        }
      ],
      "name": "withdraw",
      "outputs": [],
      "stateMutability": "nonpayable",
      "type": "function"
    }
  ],
  "bytecode": "0x60806040523480156200001157600080fd5b50604051620020243803806200202483398181016040528101906200003791906200013c565b600073ffffffffffffffffffffffffffffffffffffffff168273ffffffffffffffffffffffffffffffffffffffff161415620000aa576040517f08c379a0000000000000000000000000000000000000000000000000000000008152600401620000a190620001a4565b60405180910390fd5b80600e8190555081600c60006101000a81548173ffffffffffffffffffffffffffffffffffffffff021916908373ffffffffffffffffffffffffffffffffffffffff1602179055508042620001009190620001d7565b600d819055505050620002fe565b6000815190506200011f81620002ca565b92915050565b6000815190506200013681620002e4565b92915050565b600080604083850312156200015057600080fd5b600062000160858286016200010e565b9250506020620001738582860162000125565b9150509250929050565b60006200018c601e83620001c6565b91506200019982620002a1565b602082019050919050565b60006020820190508181036000830152620001bf816200017d565b9050919050565b600082825260208201905092915050565b6000620001e48262000268565b9150620001f18362000268565b9250827fffffffffffffffffffffffffffffffffffffffffffffffffffffffffffffffff0382111562000229576200022862000272565b5b828201905092915050565b6000620002418262000248565b9050919050565b600073ffffffffffffffffffffffffffffffffffffffff82169050919050565b6000819050919050565b7f4e487b7100000000000000000000000000000000000000000000000000000000600052601160045260246000fd5b7f4c6f74746572793a20696e76616c6964205f6c6f7474657279546f6b656e0000600082015250565b620002d58162000234565b8114620002e157600080fd5b50565b620002ef8162000268565b8114620002fb57600080fd5b50565b611d16806200030e6000396000f3fe608060405234801561001057600080fd5b50600436106101585760003560e01c806394539467116100c3578063ccbac9f51161007c578063ccbac9f514610385578063d5863e1d146103a3578063d5b8d644146103c1578063dc6b8627146103f1578063f54eb67e1461040f578063fe1881841461042d57610158565b806394539467146102d3578063947a36fb146102f1578063a26dbf261461030f578063a5dbdc121461032d578063a948915b1461034b578063b6b55f251461036957610158565b80633c1e044b116101155780633c1e044b146101fb5780634303707e146102195780635516c92d146102495780635aa68ac0146102675780635c49212914610285578063845c9306146102a357610158565b806301b62b781461015d5780631180fe3b1461017b578063141e538a146101855780631c823c38146101a35780632e1a7d4d146101c1578063398ab9a7146101dd575b600080fd5b61016561044b565b6040516101729190611705565b60405180910390f35b61018361045e565b005b61018d6107f6565b60405161019a9190611842565b60405180910390f35b6101ab6107fc565b6040516101b89190611842565b60405180910390f35b6101db60048036038101906101d691906112ad565b610802565b005b6101e561092b565b6040516101f29190611842565b60405180910390f35b610203610931565b6040516102109190611842565b60405180910390f35b610233600480360381019061022e91906112ad565b610937565b6040516102409190611842565b60405180910390f35b610251610982565b60405161025e9190611842565b60405180910390f35b61026f61098a565b60405161027c91906116c1565b60405180910390f35b61028d610a49565b60405161029a9190611842565b60405180910390f35b6102bd60048036038101906102b891906112ad565b610a4f565b6040516102ca9190611842565b60405180910390f35b6102db610c85565b6040516102e8919061166f565b60405180910390f35b6102f9610cab565b6040516103069190611842565b60405180910390f35b610317610cb1565b6040516103249190611842565b60405180910390f35b610335610cb7565b6040516103429190611842565b60405180910390f35b610353610cbd565b6040516103609190611842565b60405180910390f35b610383600480360381019061037e91906112ad565b610cc3565b005b61038d610d9d565b60405161039a9190611842565b60405180910390f35b6103ab610da3565b6040516103b89190611842565b60405180910390f35b6103db60048036038101906103d6919061125b565b610da9565b6040516103e89190611842565b60405180910390f35b6103f9610dc1565b60405161040691906116e3565b60405180910390f35b610417610e80565b6040516104249190611842565b60405180910390f35b610435610e86565b604051610442919061166f565b60405180910390f35b600a60009054906101000a900460ff1681565b600d544210156104a3576040517f08c379a000000000000000000000000000000000000000000000000000000000815260040161049a90611742565b60405180910390fd5b600060118054905014156104ca57600e54426104bf9190611901565b600d819055506107f4565b60006104da601180549050610937565b9050600e54426104ea9190611901565b600d8190555060008082141561056e576011600081548110610535577f4e487b7100000000000000000000000000000000000000000000000000000000600052603260045260246000fd5b906000526020600020906002020160000160009054906101000a900473ffffffffffffffffffffffffffffffffffffffff1690506105e9565b601160018361057d9190611957565b815481106105b4577f4e487b7100000000000000000000000000000000000000000000000000000000600052603260045260246000fd5b906000526020600020906002020160000160009054906101000a900473ffffffffffffffffffffffffffffffffffffffff1690505b6000600b60008373ffffffffffffffffffffffffffffffffffffffff1673ffffffffffffffffffffffffffffffffffffffff1681526020019081526020016000205490506000548161063b9190611901565b600b60008473ffffffffffffffffffffffffffffffffffffffff1673ffffffffffffffffffffffffffffffffffffffff16815260200190815260200160002081905550601260405180604001604052808473ffffffffffffffffffffffffffffffffffffffff168152602001600054815250908060018154018082558091505060019003906000526020600020906002020160009091909190915060008201518160000160006101000a81548173ffffffffffffffffffffffffffffffffffffffff021916908373ffffffffffffffffffffffffffffffffffffffff16021790555060208201518160010155505081600660006101000a81548173ffffffffffffffffffffffffffffffffffffffff021916908373ffffffffffffffffffffffffffffffffffffffff1602179055506000546007819055506011600061078191906111b2565b6000808190555060016004600082825461079b9190611901565b925050819055503373ffffffffffffffffffffffffffffffffffffffff167f8b128ab37d5ad73a5a884d21b9f84a0ac969c6b6e1a71400ee036c41c13a246f846040516107e89190611842565b60405180910390a25050505b565b60035481565b60055481565b6000600b60003373ffffffffffffffffffffffffffffffffffffffff1673ffffffffffffffffffffffffffffffffffffffff16815260200190815260200160002054905081811015610889576040517f08c379a0000000000000000000000000000000000000000000000000000000008152600401610880906117c2565b60405180910390fd5b6108d8303383600c60009054906101000a900473ffffffffffffffffffffffffffffffffffffffff1673ffffffffffffffffffffffffffffffffffffffff16610eac909392919063ffffffff16565b81816108e49190611957565b600b60003373ffffffffffffffffffffffffffffffffffffffff1673ffffffffffffffffffffffffffffffffffffffff168152602001908152602001600020819055505050565b60005481565b600d5481565b60008133444260405160200161094f9392919061161b565b6040516020818303038152906040528051906020012060001c6109729190611a34565b6009819055506009549050919050565b600042905090565b60606011805480602002602001604051908101604052809291908181526020016000905b82821015610a4057838290600052602060002090600202016040518060400160405290816000820160009054906101000a900473ffffffffffffffffffffffffffffffffffffffff1673ffffffffffffffffffffffffffffffffffffffff1673ffffffffffffffffffffffffffffffffffffffff168152602001600182015481525050815260200190600101906109ae565b50505050905090565b60045481565b600080600b60003373ffffffffffffffffffffffffffffffffffffffff1673ffffffffffffffffffffffffffffffffffffffff16815260200190815260200160002054905060008311610ad7576040517f08c379a0000000000000000000000000000000000000000000000000000000008152600401610ace90611782565b60405180910390fd5b600d54421115610b1c576040517f08c379a0000000000000000000000000000000000000000000000000000000008152600401610b13906117a2565b60405180910390fd5b82811015610b5f576040517f08c379a0000000000000000000000000000000000000000000000000000000008152600401610b5690611802565b60405180910390fd5b8281610b6b9190611957565b600b60003373ffffffffffffffffffffffffffffffffffffffff1673ffffffffffffffffffffffffffffffffffffffff1681526020019081526020016000208190555082600054610bbc9190611901565b600081905550601160405180604001604052803373ffffffffffffffffffffffffffffffffffffffff16815260200185815250908060018154018082558091505060019003906000526020600020906002020160009091909190915060008201518160000160006101000a81548173ffffffffffffffffffffffffffffffffffffffff021916908373ffffffffffffffffffffffffffffffffffffffff16021790555060208201518160010155505082600354610c799190611901565b60038190555050919050565b600c60009054906101000a900473ffffffffffffffffffffffffffffffffffffffff1681565b600e5481565b60025481565b60095481565b60085481565b6000811415610d07576040517f08c379a0000000000000000000000000000000000000000000000000000000008152600401610cfe90611782565b60405180910390fd5b610d56333083600c60009054906101000a900473ffffffffffffffffffffffffffffffffffffffff1673ffffffffffffffffffffffffffffffffffffffff16610eac909392919063ffffffff16565b80600b60003373ffffffffffffffffffffffffffffffffffffffff1673ffffffffffffffffffffffffffffffffffffffff1681526020019081526020016000208190555050565b600f5481565b60015481565b600b6020528060005260406000206000915090505481565b60606012805480602002602001604051908101604052809291908181526020016000905b82821015610e7757838290600052602060002090600202016040518060400160405290816000820160009054906101000a900473ffffffffffffffffffffffffffffffffffffffff1673ffffffffffffffffffffffffffffffffffffffff1673ffffffffffffffffffffffffffffffffffffffff16815260200160018201548152505081526020019060010190610de5565b50505050905090565b60075481565b600660009054906101000a900473ffffffffffffffffffffffffffffffffffffffff1681565b610f2f846323b872dd60e01b858585604051602401610ecd9392919061168a565b604051602081830303815290604052907bffffffffffffffffffffffffffffffffffffffffffffffffffffffff19166020820180517bffffffffffffffffffffffffffffffffffffffffffffffffffffffff8381831617835250505050610f35565b50505050565b6000610f97826040518060400160405280602081526020017f5361666545524332303a206c6f772d6c6576656c2063616c6c206661696c65648152508573ffffffffffffffffffffffffffffffffffffffff16610ffc9092919063ffffffff16565b9050600081511115610ff75780806020019051810190610fb79190611284565b610ff6576040517f08c379a0000000000000000000000000000000000000000000000000000000008152600401610fed90611822565b60405180910390fd5b5b505050565b606061100b8484600085611014565b90509392505050565b606082471015611059576040517f08c379a000000000000000000000000000000000000000000000000000000000815260040161105090611762565b60405180910390fd5b61106285611128565b6110a1576040517f08c379a0000000000000000000000000000000000000000000000000000000008152600401611098906117e2565b60405180910390fd5b6000808673ffffffffffffffffffffffffffffffffffffffff1685876040516110ca9190611658565b60006040518083038185875af1925050503d8060008114611107576040519150601f19603f3d011682016040523d82523d6000602084013e61110c565b606091505b509150915061111c82828661114b565b92505050949350505050565b6000808273ffffffffffffffffffffffffffffffffffffffff163b119050919050565b6060831561115b578290506111ab565b60008351111561116e5782518084602001fd5b816040517f08c379a00000000000000000000000000000000000000000000000000000000081526004016111a29190611720565b60405180910390fd5b9392505050565b50805460008255600202906000526020600020908101906111d391906111d6565b50565b5b8082111561121857600080820160006101000a81549073ffffffffffffffffffffffffffffffffffffffff02191690556001820160009055506002016111d7565b5090565b60008135905061122b81611c9b565b92915050565b60008151905061124081611cb2565b92915050565b60008135905061125581611cc9565b92915050565b60006020828403121561126d57600080fd5b600061127b8482850161121c565b91505092915050565b60006020828403121561129657600080fd5b60006112a484828501611231565b91505092915050565b6000602082840312156112bf57600080fd5b60006112cd84828501611246565b91505092915050565b60006112e28383611588565b60408301905092915050565b60006112fa83836115b7565b60408301905092915050565b61130f8161198b565b82525050565b61131e8161198b565b82525050565b6113356113308261198b565b611a06565b82525050565b60006113468261187d565b61135081856118c3565b935061135b8361185d565b8060005b8381101561138c57815161137388826112d6565b975061137e836118a9565b92505060018101905061135f565b5085935050505092915050565b60006113a482611888565b6113ae81856118d4565b93506113b98361186d565b8060005b838110156113ea5781516113d188826112ee565b97506113dc836118b6565b9250506001810190506113bd565b5085935050505092915050565b6114008161199d565b82525050565b600061141182611893565b61141b81856118e5565b935061142b8185602086016119d3565b80840191505092915050565b60006114428261189e565b61144c81856118f0565b935061145c8185602086016119d3565b61146581611ac3565b840191505092915050565b600061147d6022836118f0565b915061148882611ae1565b604082019050919050565b60006114a06026836118f0565b91506114ab82611b30565b604082019050919050565b60006114c3601c836118f0565b91506114ce82611b7f565b602082019050919050565b60006114e6601c836118f0565b91506114f182611ba8565b602082019050919050565b6000611509601a836118f0565b915061151482611bd1565b602082019050919050565b600061152c601d836118f0565b915061153782611bfa565b602082019050919050565b600061154f601c836118f0565b915061155a82611c23565b602082019050919050565b6000611572602a836118f0565b915061157d82611c4c565b604082019050919050565b60408201600082015161159e6000850182611306565b5060208201516115b160208501826115e6565b50505050565b6040820160008201516115cd6000850182611306565b5060208201516115e060208501826115e6565b50505050565b6115ef816119c9565b82525050565b6115fe816119c9565b82525050565b611615611610826119c9565b611a2a565b82525050565b60006116278286611324565b6014820191506116378285611604565b6020820191506116478284611604565b602082019150819050949350505050565b60006116648284611406565b915081905092915050565b60006020820190506116846000830184611315565b92915050565b600060608201905061169f6000830186611315565b6116ac6020830185611315565b6116b960408301846115f5565b949350505050565b600060208201905081810360008301526116db818461133b565b905092915050565b600060208201905081810360008301526116fd8184611399565b905092915050565b600060208201905061171a60008301846113f7565b92915050565b6000602082019050818103600083015261173a8184611437565b905092915050565b6000602082019050818103600083015261175b81611470565b9050919050565b6000602082019050818103600083015261177b81611493565b9050919050565b6000602082019050818103600083015261179b816114b6565b9050919050565b600060208201905081810360008301526117bb816114d9565b9050919050565b600060208201905081810360008301526117db816114fc565b9050919050565b600060208201905081810360008301526117fb8161151f565b9050919050565b6000602082019050818103600083015261181b81611542565b9050919050565b6000602082019050818103600083015261183b81611565565b9050919050565b600060208201905061185760008301846115f5565b92915050565b6000819050602082019050919050565b6000819050602082019050919050565b600081519050919050565b600081519050919050565b600081519050919050565b600081519050919050565b6000602082019050919050565b6000602082019050919050565b600082825260208201905092915050565b600082825260208201905092915050565b600081905092915050565b600082825260208201905092915050565b600061190c826119c9565b9150611917836119c9565b9250827fffffffffffffffffffffffffffffffffffffffffffffffffffffffffffffffff0382111561194c5761194b611a65565b5b828201905092915050565b6000611962826119c9565b915061196d836119c9565b9250828210156119805761197f611a65565b5b828203905092915050565b6000611996826119a9565b9050919050565b60008115159050919050565b600073ffffffffffffffffffffffffffffffffffffffff82169050919050565b6000819050919050565b60005b838110156119f15780820151818401526020810190506119d6565b83811115611a00576000848401525b50505050565b6000611a1182611a18565b9050919050565b6000611a2382611ad4565b9050919050565b6000819050919050565b6000611a3f826119c9565b9150611a4a836119c9565b925082611a5a57611a59611a94565b5b828206905092915050565b7f4e487b7100000000000000000000000000000000000000000000000000000000600052601160045260246000fd5b7f4e487b7100000000000000000000000000000000000000000000000000000000600052601260045260246000fd5b6000601f19601f8301169050919050565b60008160601b9050919050565b7f4c6f74746572793a20216e657874506172746963697061746554696d6573746160008201527f6d70000000000000000000000000000000000000000000000000000000000000602082015250565b7f416464726573733a20696e73756666696369656e742062616c616e636520666f60008201527f722063616c6c0000000000000000000000000000000000000000000000000000602082015250565b7f4c6f74746572793a20696e76616c696420746f6b656e416d6f756e7400000000600082015250565b7f4c6f74746572793a2068617320616c7265616479207374617274656400000000600082015250565b7f4c6f74746572793a206e6f20656e6f7567682062616c616e6365000000000000600082015250565b7f416464726573733a2063616c6c20746f206e6f6e2d636f6e7472616374000000600082015250565b7f4c6f74746572793a696e73756666696369656e742062616c616e636500000000600082015250565b7f5361666545524332303a204552433230206f7065726174696f6e20646964206e60008201527f6f74207375636365656400000000000000000000000000000000000000000000602082015250565b611ca48161198b565b8114611caf57600080fd5b50565b611cbb8161199d565b8114611cc657600080fd5b50565b611cd2816119c9565b8114611cdd57600080fd5b5056fea26469706673582212205b1ba675189d3b96c73dadf165813a20622ac0933707570466086d111d85ff7764736f6c63430008040033",
  "linkReferences": {},
  "deployedLinkReferences": {}
}