{
  "_format": "hh-sol-artifact-1",
  "contractName": "XENToken",
  "sourceName": "contracts/ERC20.sol",
  "abi": [
    {
      "inputs": [],
      "stateMutability": "nonpayable",
      "type": "constructor"
    },
    {
      "anonymous": false,
      "inputs": [
        {
          "indexed": true,
          "internalType": "address",
          "name": "owner",
          "type": "address"
        },
        {
          "indexed": true,
          "internalType": "address",
          "name": "spender",
          "type": "address"
        },
        {
          "indexed": false,
          "internalType": "uint256",
          "name": "value",
          "type": "uint256"
        }
      ],
      "name": "Approval",
      "type": "event"
    },
    {
      "anonymous": false,
      "inputs": [
        {
          "indexed": true,
          "internalType": "address",
          "name": "from",
          "type": "address"
        },
        {
          "indexed": true,
          "internalType": "address",
          "name": "to",
          "type": "address"
        },
        {
          "indexed": false,
          "internalType": "uint256",
          "name": "value",
          "type": "uint256"
        }
      ],
      "name": "Transfer",
      "type": "event"
    },
    {
      "inputs": [],
      "name": "DOMAIN_SEPARATOR",
      "outputs": [
        {
          "internalType": "bytes32",
          "name": "",
          "type": "bytes32"
        }
      ],
      "stateMutability": "view",
      "type": "function"
    },
    {
      "inputs": [
        {
          "internalType": "address",
          "name": "owner",
          "type": "address"
        },
        {
          "internalType": "address",
          "name": "spender",
          "type": "address"
        }
      ],
      "name": "allowance",
      "outputs": [
        {
          "internalType": "uint256",
          "name": "",
          "type": "uint256"
        }
      ],
      "stateMutability": "view",
      "type": "function"
    },
    {
      "inputs": [
        {
          "internalType": "address",
          "name": "spender",
          "type": "address"
        },
        {
          "internalType": "uint256",
          "name": "amount",
          "type": "uint256"
        }
      ],
      "name": "approve",
      "outputs": [
        {
          "internalType": "bool",
          "name": "",
          "type": "bool"
        }
      ],
      "stateMutability": "nonpayable",
      "type": "function"
    },
    {
      "inputs": [
        {
          "internalType": "address",
          "name": "account",
          "type": "address"
        }
      ],
      "name": "balanceOf",
      "outputs": [
        {
          "internalType": "uint256",
          "name": "",
          "type": "uint256"
        }
      ],
      "stateMutability": "view",
      "type": "function"
    },
    {
      "inputs": [],
      "name": "decimals",
      "outputs": [
        {
          "internalType": "uint8",
          "name": "",
          "type": "uint8"
        }
      ],
      "stateMutability": "view",
      "type": "function"
    },
    {
      "inputs": [
        {
          "internalType": "address",
          "name": "spender",
          "type": "address"
        },
        {
          "internalType": "uint256",
          "name": "subtractedValue",
          "type": "uint256"
        }
      ],
      "name": "decreaseAllowance",
      "outputs": [
        {
          "internalType": "bool",
          "name": "",
          "type": "bool"
        }
      ],
      "stateMutability": "nonpayable",
      "type": "function"
    },
    {
      "inputs": [
        {
          "internalType": "address",
          "name": "spender",
          "type": "address"
        },
        {
          "internalType": "uint256",
          "name": "addedValue",
          "type": "uint256"
        }
      ],
      "name": "increaseAllowance",
      "outputs": [
        {
          "internalType": "bool",
          "name": "",
          "type": "bool"
        }
      ],
      "stateMutability": "nonpayable",
      "type": "function"
    },
    {
      "inputs": [],
      "name": "name",
      "outputs": [
        {
          "internalType": "string",
          "name": "",
          "type": "string"
        }
      ],
      "stateMutability": "view",
      "type": "function"
    },
    {
      "inputs": [
        {
          "internalType": "address",
          "name": "owner",
          "type": "address"
        }
      ],
      "name": "nonces",
      "outputs": [
        {
          "internalType": "uint256",
          "name": "",
          "type": "uint256"
        }
      ],
      "stateMutability": "view",
      "type": "function"
    },
    {
      "inputs": [
        {
          "internalType": "address",
          "name": "owner",
          "type": "address"
        },
        {
          "internalType": "address",
          "name": "spender",
          "type": "address"
        },
        {
          "internalType": "uint256",
          "name": "value",
          "type": "uint256"
        },
        {
          "internalType": "uint256",
          "name": "deadline",
          "type": "uint256"
        },
        {
          "internalType": "uint8",
          "name": "v",
          "type": "uint8"
        },
        {
          "internalType": "bytes32",
          "name": "r",
          "type": "bytes32"
        },
        {
          "internalType": "bytes32",
          "name": "s",
          "type": "bytes32"
        }
      ],
      "name": "permit",
      "outputs": [],
      "stateMutability": "nonpayable",
      "type": "function"
    },
    {
      "inputs": [],
      "name": "symbol",
      "outputs": [
        {
          "internalType": "string",
          "name": "",
          "type": "string"
        }
      ],
      "stateMutability": "view",
      "type": "function"
    },
    {
      "inputs": [],
      "name": "totalSupply",
      "outputs": [
        {
          "internalType": "uint256",
          "name": "",
          "type": "uint256"
        }
      ],
      "stateMutability": "view",
      "type": "function"
    },
    {
      "inputs": [
        {
          "internalType": "address",
          "name": "to",
          "type": "address"
        },
        {
          "internalType": "uint256",
          "name": "amount",
          "type": "uint256"
        }
      ],
      "name": "transfer",
      "outputs": [
        {
          "internalType": "bool",
          "name": "",
          "type": "bool"
        }
      ],
      "stateMutability": "nonpayable",
      "type": "function"
    },
    {
      "inputs": [
        {
          "internalType": "address",
          "name": "from",
          "type": "address"
        },
        {
          "internalType": "address",
          "name": "to",
          "type": "address"
        },
        {
          "internalType": "uint256",
          "name": "amount",
          "type": "uint256"
        }
      ],
      "name": "transferFrom",
      "outputs": [
        {
          "internalType": "bool",
          "name": "",
          "type": "bool"
        }
      ],
      "stateMutability": "nonpayable",
      "type": "function"
    }
  ],
  "bytecode": "0x6101406040523480156200001257600080fd5b506040518060400160405280600381526020017f58656e0000000000000000000000000000000000000000000000000000000000815250806040518060400160405280600181526020017f31000000000000000000000000000000000000000000000000000000000000008152506040518060400160405280600381526020017f58454e00000000000000000000000000000000000000000000000000000000008152506040518060400160405280600381526020017f58454e0000000000000000000000000000000000000000000000000000000000815250816003908051906020019062000104929190620003b9565b5080600490805190602001906200011d929190620003b9565b50505060008280519060200120905060008280519060200120905060007f8b73c3c69bb8fe3d512ecc4cf759cc79239f7b179b0ffacaa9a75d522b39400f90508260e081815250508161010081815250504660a0818152505062000189818484620001fa60201b60201c565b608081815250503073ffffffffffffffffffffffffffffffffffffffff1660c08173ffffffffffffffffffffffffffffffffffffffff1660601b81525050806101208181525050505050505050620001f4336b06765c793fa10079d00000006200023660201b60201c565b620006d2565b6000838383463060405160200162000217959493929190620004c3565b6040516020818303038152906040528051906020012090509392505050565b600073ffffffffffffffffffffffffffffffffffffffff168273ffffffffffffffffffffffffffffffffffffffff161415620002a9576040517f08c379a0000000000000000000000000000000000000000000000000000000008152600401620002a09062000520565b60405180910390fd5b620002bd60008383620003af60201b60201c565b8060026000828254620002d1919062000570565b92505081905550806000808473ffffffffffffffffffffffffffffffffffffffff1673ffffffffffffffffffffffffffffffffffffffff168152602001908152602001600020600082825462000328919062000570565b925050819055508173ffffffffffffffffffffffffffffffffffffffff16600073ffffffffffffffffffffffffffffffffffffffff167fddf252ad1be2c89b69c2b068fc378daa952ba7f163c4a11628f55a4df523b3ef836040516200038f919062000542565b60405180910390a3620003ab60008383620003b460201b60201c565b5050565b505050565b505050565b828054620003c79062000615565b90600052602060002090601f016020900481019282620003eb576000855562000437565b82601f106200040657805160ff191683800117855562000437565b8280016001018555821562000437579182015b828111156200043657825182559160200191906001019062000419565b5b5090506200044691906200044a565b5090565b5b80821115620004655760008160009055506001016200044b565b5090565b6200047481620005cd565b82525050565b6200048581620005e1565b82525050565b60006200049a601f836200055f565b9150620004a782620006a9565b602082019050919050565b620004bd816200060b565b82525050565b600060a082019050620004da60008301886200047a565b620004e960208301876200047a565b620004f860408301866200047a565b620005076060830185620004b2565b62000516608083018462000469565b9695505050505050565b600060208201905081810360008301526200053b816200048b565b9050919050565b6000602082019050620005596000830184620004b2565b92915050565b600082825260208201905092915050565b60006200057d826200060b565b91506200058a836200060b565b9250827fffffffffffffffffffffffffffffffffffffffffffffffffffffffffffffffff03821115620005c257620005c16200064b565b5b828201905092915050565b6000620005da82620005eb565b9050919050565b6000819050919050565b600073ffffffffffffffffffffffffffffffffffffffff82169050919050565b6000819050919050565b600060028204905060018216806200062e57607f821691505b602082108114156200064557620006446200067a565b5b50919050565b7f4e487b7100000000000000000000000000000000000000000000000000000000600052601160045260246000fd5b7f4e487b7100000000000000000000000000000000000000000000000000000000600052602260045260246000fd5b7f45524332303a206d696e7420746f20746865207a65726f206164647265737300600082015250565b60805160a05160c05160601c60e0516101005161012051612100620007256000396000610d7901526000610dbb01526000610d9a01526000610ccf01526000610d2501526000610d4e01526121006000f3fe608060405234801561001057600080fd5b50600436106100ea5760003560e01c806370a082311161008c578063a457c2d711610066578063a457c2d714610275578063a9059cbb146102a5578063d505accf146102d5578063dd62ed3e146102f1576100ea565b806370a08231146101f75780637ecebe001461022757806395d89b4114610257576100ea565b806323b872dd116100c857806323b872dd1461015b578063313ce5671461018b5780633644e515146101a957806339509351146101c7576100ea565b806306fdde03146100ef578063095ea7b31461010d57806318160ddd1461013d575b600080fd5b6100f7610321565b604051610104919061194e565b60405180910390f35b61012760048036038101906101229190611527565b6103b3565b604051610134919061181f565b60405180910390f35b6101456103d6565b6040516101529190611b10565b60405180910390f35b6101756004803603810190610170919061143a565b6103e0565b604051610182919061181f565b60405180910390f35b61019361040f565b6040516101a09190611b2b565b60405180910390f35b6101b1610418565b6040516101be919061183a565b60405180910390f35b6101e160048036038101906101dc9190611527565b610427565b6040516101ee919061181f565b60405180910390f35b610211600480360381019061020c91906113d5565b61045e565b60405161021e9190611b10565b60405180910390f35b610241600480360381019061023c91906113d5565b6104a6565b60405161024e9190611b10565b60405180910390f35b61025f6104f6565b60405161026c919061194e565b60405180910390f35b61028f600480360381019061028a9190611527565b610588565b60405161029c919061181f565b60405180910390f35b6102bf60048036038101906102ba9190611527565b6105ff565b6040516102cc919061181f565b60405180910390f35b6102ef60048036038101906102ea9190611489565b610622565b005b61030b600480360381019061030691906113fe565b610764565b6040516103189190611b10565b60405180910390f35b60606003805461033090611c55565b80601f016020809104026020016040519081016040528092919081815260200182805461035c90611c55565b80156103a95780601f1061037e576101008083540402835291602001916103a9565b820191906000526020600020905b81548152906001019060200180831161038c57829003601f168201915b5050505050905090565b6000806103be6107eb565b90506103cb8185856107f3565b600191505092915050565b6000600254905090565b6000806103eb6107eb565b90506103f88582856109be565b610403858585610a4a565b60019150509392505050565b60006012905090565b6000610422610ccb565b905090565b6000806104326107eb565b90506104538185856104448589610764565b61044e9190611b6d565b6107f3565b600191505092915050565b60008060008373ffffffffffffffffffffffffffffffffffffffff1673ffffffffffffffffffffffffffffffffffffffff168152602001908152602001600020549050919050565b60006104ef600560008473ffffffffffffffffffffffffffffffffffffffff1673ffffffffffffffffffffffffffffffffffffffff168152602001908152602001600020610de5565b9050919050565b60606004805461050590611c55565b80601f016020809104026020016040519081016040528092919081815260200182805461053190611c55565b801561057e5780601f106105535761010080835404028352916020019161057e565b820191906000526020600020905b81548152906001019060200180831161056157829003601f168201915b5050505050905090565b6000806105936107eb565b905060006105a18286610764565b9050838110156105e6576040517f08c379a00000000000000000000000000000000000000000000000000000000081526004016105dd90611af0565b60405180910390fd5b6105f382868684036107f3565b60019250505092915050565b60008061060a6107eb565b9050610617818585610a4a565b600191505092915050565b83421115610665576040517f08c379a000000000000000000000000000000000000000000000000000000000815260040161065c90611a10565b60405180910390fd5b60007f6e71edae12b1b97f4d1f60370fef10105fa2faae0126114a169c64845d6126c98888886106948c610df3565b896040516020016106aa96959493929190611855565b60405160208183030381529060405280519060200120905060006106cd82610e51565b905060006106dd82878787610e6b565b90508973ffffffffffffffffffffffffffffffffffffffff168173ffffffffffffffffffffffffffffffffffffffff161461074d576040517f08c379a000000000000000000000000000000000000000000000000000000000815260040161074490611a90565b60405180910390fd5b6107588a8a8a6107f3565b50505050505050505050565b6000600160008473ffffffffffffffffffffffffffffffffffffffff1673ffffffffffffffffffffffffffffffffffffffff16815260200190815260200160002060008373ffffffffffffffffffffffffffffffffffffffff1673ffffffffffffffffffffffffffffffffffffffff16815260200190815260200160002054905092915050565b600033905090565b600073ffffffffffffffffffffffffffffffffffffffff168373ffffffffffffffffffffffffffffffffffffffff161415610863576040517f08c379a000000000000000000000000000000000000000000000000000000000815260040161085a90611ad0565b60405180910390fd5b600073ffffffffffffffffffffffffffffffffffffffff168273ffffffffffffffffffffffffffffffffffffffff1614156108d3576040517f08c379a00000000000000000000000000000000000000000000000000000000081526004016108ca906119d0565b60405180910390fd5b80600160008573ffffffffffffffffffffffffffffffffffffffff1673ffffffffffffffffffffffffffffffffffffffff16815260200190815260200160002060008473ffffffffffffffffffffffffffffffffffffffff1673ffffffffffffffffffffffffffffffffffffffff168152602001908152602001600020819055508173ffffffffffffffffffffffffffffffffffffffff168373ffffffffffffffffffffffffffffffffffffffff167f8c5be1e5ebec7d5bd14f71427d1e84f3dd0314c0f7b2291e5b200ac8c7c3b925836040516109b19190611b10565b60405180910390a3505050565b60006109ca8484610764565b90507fffffffffffffffffffffffffffffffffffffffffffffffffffffffffffffffff8114610a445781811015610a36576040517f08c379a0000000000000000000000000000000000000000000000000000000008152600401610a2d906119f0565b60405180910390fd5b610a4384848484036107f3565b5b50505050565b600073ffffffffffffffffffffffffffffffffffffffff168373ffffffffffffffffffffffffffffffffffffffff161415610aba576040517f08c379a0000000000000000000000000000000000000000000000000000000008152600401610ab190611ab0565b60405180910390fd5b600073ffffffffffffffffffffffffffffffffffffffff168273ffffffffffffffffffffffffffffffffffffffff161415610b2a576040517f08c379a0000000000000000000000000000000000000000000000000000000008152600401610b2190611990565b60405180910390fd5b610b35838383610e96565b60008060008573ffffffffffffffffffffffffffffffffffffffff1673ffffffffffffffffffffffffffffffffffffffff16815260200190815260200160002054905081811015610bbb576040517f08c379a0000000000000000000000000000000000000000000000000000000008152600401610bb290611a30565b60405180910390fd5b8181036000808673ffffffffffffffffffffffffffffffffffffffff1673ffffffffffffffffffffffffffffffffffffffff16815260200190815260200160002081905550816000808573ffffffffffffffffffffffffffffffffffffffff1673ffffffffffffffffffffffffffffffffffffffff1681526020019081526020016000206000828254610c4e9190611b6d565b925050819055508273ffffffffffffffffffffffffffffffffffffffff168473ffffffffffffffffffffffffffffffffffffffff167fddf252ad1be2c89b69c2b068fc378daa952ba7f163c4a11628f55a4df523b3ef84604051610cb29190611b10565b60405180910390a3610cc5848484610e9b565b50505050565b60007f000000000000000000000000000000000000000000000000000000000000000073ffffffffffffffffffffffffffffffffffffffff163073ffffffffffffffffffffffffffffffffffffffff16148015610d4757507f000000000000000000000000000000000000000000000000000000000000000046145b15610d74577f00000000000000000000000000000000000000000000000000000000000000009050610de2565b610ddf7f00000000000000000000000000000000000000000000000000000000000000007f00000000000000000000000000000000000000000000000000000000000000007f0000000000000000000000000000000000000000000000000000000000000000610ea0565b90505b90565b600081600001549050919050565b600080600560008473ffffffffffffffffffffffffffffffffffffffff1673ffffffffffffffffffffffffffffffffffffffff1681526020019081526020016000209050610e4081610de5565b9150610e4b81610eda565b50919050565b6000610e64610e5e610ccb565b83610ef0565b9050919050565b6000806000610e7c87878787610f23565b91509150610e8981611030565b8192505050949350505050565b505050565b505050565b60008383834630604051602001610ebb9594939291906118b6565b6040516020818303038152906040528051906020012090509392505050565b6001816000016000828254019250508190555050565b60008282604051602001610f059291906117e8565b60405160208183030381529060405280519060200120905092915050565b6000807f7fffffffffffffffffffffffffffffff5d576e7357a4501ddfe92f46681b20a08360001c1115610f5e576000600391509150611027565b601b8560ff1614158015610f765750601c8560ff1614155b15610f88576000600491509150611027565b600060018787878760405160008152602001604052604051610fad9493929190611909565b6020604051602081039080840390855afa158015610fcf573d6000803e3d6000fd5b505050602060405103519050600073ffffffffffffffffffffffffffffffffffffffff168173ffffffffffffffffffffffffffffffffffffffff16141561101e57600060019250925050611027565b80600092509250505b94509492505050565b6000600481111561106a577f4e487b7100000000000000000000000000000000000000000000000000000000600052602160045260246000fd5b8160048111156110a3577f4e487b7100000000000000000000000000000000000000000000000000000000600052602160045260246000fd5b14156110ae5761137e565b600160048111156110e8577f4e487b7100000000000000000000000000000000000000000000000000000000600052602160045260246000fd5b816004811115611121577f4e487b7100000000000000000000000000000000000000000000000000000000600052602160045260246000fd5b1415611162576040517f08c379a000000000000000000000000000000000000000000000000000000000815260040161115990611970565b60405180910390fd5b6002600481111561119c577f4e487b7100000000000000000000000000000000000000000000000000000000600052602160045260246000fd5b8160048111156111d5577f4e487b7100000000000000000000000000000000000000000000000000000000600052602160045260246000fd5b1415611216576040517f08c379a000000000000000000000000000000000000000000000000000000000815260040161120d906119b0565b60405180910390fd5b60036004811115611250577f4e487b7100000000000000000000000000000000000000000000000000000000600052602160045260246000fd5b816004811115611289577f4e487b7100000000000000000000000000000000000000000000000000000000600052602160045260246000fd5b14156112ca576040517f08c379a00000000000000000000000000000000000000000000000000000000081526004016112c190611a50565b60405180910390fd5b600480811115611303577f4e487b7100000000000000000000000000000000000000000000000000000000600052602160045260246000fd5b81600481111561133c577f4e487b7100000000000000000000000000000000000000000000000000000000600052602160045260246000fd5b141561137d576040517f08c379a000000000000000000000000000000000000000000000000000000000815260040161137490611a70565b60405180910390fd5b5b50565b6000813590506113908161206e565b92915050565b6000813590506113a581612085565b92915050565b6000813590506113ba8161209c565b92915050565b6000813590506113cf816120b3565b92915050565b6000602082840312156113e757600080fd5b60006113f584828501611381565b91505092915050565b6000806040838503121561141157600080fd5b600061141f85828601611381565b925050602061143085828601611381565b9150509250929050565b60008060006060848603121561144f57600080fd5b600061145d86828701611381565b935050602061146e86828701611381565b925050604061147f868287016113ab565b9150509250925092565b600080600080600080600060e0888a0312156114a457600080fd5b60006114b28a828b01611381565b97505060206114c38a828b01611381565b96505060406114d48a828b016113ab565b95505060606114e58a828b016113ab565b94505060806114f68a828b016113c0565b93505060a06115078a828b01611396565b92505060c06115188a828b01611396565b91505092959891949750929550565b6000806040838503121561153a57600080fd5b600061154885828601611381565b9250506020611559858286016113ab565b9150509250929050565b61156c81611bc3565b82525050565b61157b81611bd5565b82525050565b61158a81611be1565b82525050565b6115a161159c82611be1565b611c87565b82525050565b60006115b282611b46565b6115bc8185611b51565b93506115cc818560208601611c22565b6115d581611cef565b840191505092915050565b60006115ed601883611b51565b91506115f882611d00565b602082019050919050565b6000611610602383611b51565b915061161b82611d29565b604082019050919050565b6000611633601f83611b51565b915061163e82611d78565b602082019050919050565b6000611656602283611b51565b915061166182611da1565b604082019050919050565b6000611679600283611b62565b915061168482611df0565b600282019050919050565b600061169c601d83611b51565b91506116a782611e19565b602082019050919050565b60006116bf601d83611b51565b91506116ca82611e42565b602082019050919050565b60006116e2602683611b51565b91506116ed82611e6b565b604082019050919050565b6000611705602283611b51565b915061171082611eba565b604082019050919050565b6000611728602283611b51565b915061173382611f09565b604082019050919050565b600061174b601e83611b51565b915061175682611f58565b602082019050919050565b600061176e602583611b51565b915061177982611f81565b604082019050919050565b6000611791602483611b51565b915061179c82611fd0565b604082019050919050565b60006117b4602583611b51565b91506117bf8261201f565b604082019050919050565b6117d381611c0b565b82525050565b6117e281611c15565b82525050565b60006117f38261166c565b91506117ff8285611590565b60208201915061180f8284611590565b6020820191508190509392505050565b60006020820190506118346000830184611572565b92915050565b600060208201905061184f6000830184611581565b92915050565b600060c08201905061186a6000830189611581565b6118776020830188611563565b6118846040830187611563565b61189160608301866117ca565b61189e60808301856117ca565b6118ab60a08301846117ca565b979650505050505050565b600060a0820190506118cb6000830188611581565b6118d86020830187611581565b6118e56040830186611581565b6118f260608301856117ca565b6118ff6080830184611563565b9695505050505050565b600060808201905061191e6000830187611581565b61192b60208301866117d9565b6119386040830185611581565b6119456060830184611581565b95945050505050565b6000602082019050818103600083015261196881846115a7565b905092915050565b60006020820190508181036000830152611989816115e0565b9050919050565b600060208201905081810360008301526119a981611603565b9050919050565b600060208201905081810360008301526119c981611626565b9050919050565b600060208201905081810360008301526119e981611649565b9050919050565b60006020820190508181036000830152611a098161168f565b9050919050565b60006020820190508181036000830152611a29816116b2565b9050919050565b60006020820190508181036000830152611a49816116d5565b9050919050565b60006020820190508181036000830152611a69816116f8565b9050919050565b60006020820190508181036000830152611a898161171b565b9050919050565b60006020820190508181036000830152611aa98161173e565b9050919050565b60006020820190508181036000830152611ac981611761565b9050919050565b60006020820190508181036000830152611ae981611784565b9050919050565b60006020820190508181036000830152611b09816117a7565b9050919050565b6000602082019050611b2560008301846117ca565b92915050565b6000602082019050611b4060008301846117d9565b92915050565b600081519050919050565b600082825260208201905092915050565b600081905092915050565b6000611b7882611c0b565b9150611b8383611c0b565b9250827fffffffffffffffffffffffffffffffffffffffffffffffffffffffffffffffff03821115611bb857611bb7611c91565b5b828201905092915050565b6000611bce82611beb565b9050919050565b60008115159050919050565b6000819050919050565b600073ffffffffffffffffffffffffffffffffffffffff82169050919050565b6000819050919050565b600060ff82169050919050565b60005b83811015611c40578082015181840152602081019050611c25565b83811115611c4f576000848401525b50505050565b60006002820490506001821680611c6d57607f821691505b60208210811415611c8157611c80611cc0565b5b50919050565b6000819050919050565b7f4e487b7100000000000000000000000000000000000000000000000000000000600052601160045260246000fd5b7f4e487b7100000000000000000000000000000000000000000000000000000000600052602260045260246000fd5b6000601f19601f8301169050919050565b7f45434453413a20696e76616c6964207369676e61747572650000000000000000600082015250565b7f45524332303a207472616e7366657220746f20746865207a65726f206164647260008201527f6573730000000000000000000000000000000000000000000000000000000000602082015250565b7f45434453413a20696e76616c6964207369676e6174757265206c656e67746800600082015250565b7f45524332303a20617070726f766520746f20746865207a65726f20616464726560008201527f7373000000000000000000000000000000000000000000000000000000000000602082015250565b7f1901000000000000000000000000000000000000000000000000000000000000600082015250565b7f45524332303a20696e73756666696369656e7420616c6c6f77616e6365000000600082015250565b7f45524332305065726d69743a206578706972656420646561646c696e65000000600082015250565b7f45524332303a207472616e7366657220616d6f756e742065786365656473206260008201527f616c616e63650000000000000000000000000000000000000000000000000000602082015250565b7f45434453413a20696e76616c6964207369676e6174757265202773272076616c60008201527f7565000000000000000000000000000000000000000000000000000000000000602082015250565b7f45434453413a20696e76616c6964207369676e6174757265202776272076616c60008201527f7565000000000000000000000000000000000000000000000000000000000000602082015250565b7f45524332305065726d69743a20696e76616c6964207369676e61747572650000600082015250565b7f45524332303a207472616e736665722066726f6d20746865207a65726f20616460008201527f6472657373000000000000000000000000000000000000000000000000000000602082015250565b7f45524332303a20617070726f76652066726f6d20746865207a65726f2061646460008201527f7265737300000000000000000000000000000000000000000000000000000000602082015250565b7f45524332303a2064656372656173656420616c6c6f77616e63652062656c6f7760008201527f207a65726f000000000000000000000000000000000000000000000000000000602082015250565b61207781611bc3565b811461208257600080fd5b50565b61208e81611be1565b811461209957600080fd5b50565b6120a581611c0b565b81146120b057600080fd5b50565b6120bc81611c15565b81146120c757600080fd5b5056fea26469706673582212203c6e4df8e6c94cc5416f32381df28a7bce6979c8cd3410bfadf89694662ac76d64736f6c63430008040033",
  "linkReferences": {},
  "deployedLinkReferences": {}
}